{
  "contractName": "FundMonitor",
  "abi": [
    {
      "inputs": [],
      "stateMutability": "nonpayable",
      "type": "constructor"
    },
    {
      "anonymous": false,
      "inputs": [
        {
          "indexed": true,
          "internalType": "address",
          "name": "sender",
          "type": "address"
        },
        {
          "indexed": true,
          "internalType": "address",
          "name": "district",
          "type": "address"
        },
        {
          "indexed": true,
          "internalType": "address",
          "name": "sector",
          "type": "address"
        },
        {
          "indexed": false,
          "internalType": "uint256",
          "name": "amount",
          "type": "uint256"
        }
      ],
      "name": "FundsAllocated",
      "type": "event"
    },
    {
      "anonymous": false,
      "inputs": [
        {
          "indexed": true,
          "internalType": "address",
          "name": "sender",
          "type": "address"
        },
        {
          "indexed": true,
          "internalType": "address",
          "name": "fromDistrict",
          "type": "address"
        },
        {
          "indexed": true,
          "internalType": "address",
          "name": "toSector",
          "type": "address"
        },
        {
          "indexed": false,
          "internalType": "uint256",
          "name": "amount",
          "type": "uint256"
        }
      ],
      "name": "FundsTransferred",
      "type": "event"
    },
    {
      "inputs": [
        {
          "internalType": "address",
          "name": "",
          "type": "address"
        },
        {
          "internalType": "address",
          "name": "",
          "type": "address"
        }
      ],
      "name": "allocatedFunds",
      "outputs": [
        {
          "internalType": "uint256",
          "name": "",
          "type": "uint256"
        }
      ],
      "stateMutability": "view",
      "type": "function"
    },
    {
      "inputs": [],
      "name": "centralGov",
      "outputs": [
        {
          "internalType": "address",
          "name": "",
          "type": "address"
        }
      ],
      "stateMutability": "view",
      "type": "function"
    },
    {
      "inputs": [
        {
          "internalType": "uint256",
          "name": "",
          "type": "uint256"
        }
      ],
      "name": "contractors",
      "outputs": [
        {
          "internalType": "string",
          "name": "nameOfContractor",
          "type": "string"
        },
        {
          "internalType": "address",
          "name": "contractorAddress",
          "type": "address"
        }
      ],
      "stateMutability": "view",
      "type": "function"
    },
    {
      "inputs": [
        {
          "internalType": "uint256",
          "name": "",
          "type": "uint256"
        }
      ],
      "name": "districts",
      "outputs": [
        {
          "internalType": "string",
          "name": "nameOfDistrict",
          "type": "string"
        },
        {
          "internalType": "address",
          "name": "districtAddress",
          "type": "address"
        }
      ],
      "stateMutability": "view",
      "type": "function"
    },
    {
      "inputs": [
        {
          "internalType": "address",
          "name": "",
          "type": "address"
        }
      ],
      "name": "hierarchy",
      "outputs": [
        {
          "internalType": "uint256",
          "name": "",
          "type": "uint256"
        }
      ],
      "stateMutability": "view",
      "type": "function"
    },
    {
      "inputs": [
        {
          "internalType": "address",
          "name": "",
          "type": "address"
        }
      ],
      "name": "isContractor",
      "outputs": [
        {
          "internalType": "bool",
          "name": "",
          "type": "bool"
        }
      ],
      "stateMutability": "view",
      "type": "function"
    },
    {
      "inputs": [
        {
          "internalType": "address",
          "name": "",
          "type": "address"
        }
      ],
      "name": "isDistrict",
      "outputs": [
        {
          "internalType": "bool",
          "name": "",
          "type": "bool"
        }
      ],
      "stateMutability": "view",
      "type": "function"
    },
    {
      "inputs": [
        {
          "internalType": "address",
          "name": "",
          "type": "address"
        },
        {
          "internalType": "address",
          "name": "",
          "type": "address"
        }
      ],
      "name": "isDistrictSector",
      "outputs": [
        {
          "internalType": "bool",
          "name": "",
          "type": "bool"
        }
      ],
      "stateMutability": "view",
      "type": "function"
    },
    {
      "inputs": [
        {
          "internalType": "address",
          "name": "",
          "type": "address"
        }
      ],
      "name": "isSector",
      "outputs": [
        {
          "internalType": "bool",
          "name": "",
          "type": "bool"
        }
      ],
      "stateMutability": "view",
      "type": "function"
    },
    {
      "inputs": [
        {
          "internalType": "address",
          "name": "",
          "type": "address"
        }
      ],
      "name": "isState",
      "outputs": [
        {
          "internalType": "bool",
          "name": "",
          "type": "bool"
        }
      ],
      "stateMutability": "view",
      "type": "function"
    },
    {
      "inputs": [
        {
          "internalType": "address",
          "name": "",
          "type": "address"
        }
      ],
      "name": "isSupplier",
      "outputs": [
        {
          "internalType": "bool",
          "name": "",
          "type": "bool"
        }
      ],
      "stateMutability": "view",
      "type": "function"
    },
    {
      "inputs": [],
      "name": "owner",
      "outputs": [
        {
          "internalType": "address",
          "name": "",
          "type": "address"
        }
      ],
      "stateMutability": "view",
      "type": "function"
    },
    {
      "inputs": [
        {
          "internalType": "uint256",
          "name": "",
          "type": "uint256"
        }
      ],
      "name": "sectors",
      "outputs": [
        {
          "internalType": "string",
          "name": "nameOfSectors",
          "type": "string"
        },
        {
          "internalType": "address",
          "name": "sectorAddress",
          "type": "address"
        }
      ],
      "stateMutability": "view",
      "type": "function"
    },
    {
      "inputs": [
        {
          "internalType": "uint256",
          "name": "",
          "type": "uint256"
        }
      ],
      "name": "states",
      "outputs": [
        {
          "internalType": "string",
          "name": "nameOfState",
          "type": "string"
        },
        {
          "internalType": "address",
          "name": "stateAddress",
          "type": "address"
        }
      ],
      "stateMutability": "view",
      "type": "function"
    },
    {
      "inputs": [
        {
          "internalType": "uint256",
          "name": "",
          "type": "uint256"
        }
      ],
      "name": "suppliers",
      "outputs": [
        {
          "internalType": "string",
          "name": "nameOfContractor",
          "type": "string"
        },
        {
          "internalType": "address",
          "name": "contractorAddress",
          "type": "address"
        }
      ],
      "stateMutability": "view",
      "type": "function"
    },
    {
      "inputs": [
        {
          "internalType": "address",
          "name": "",
          "type": "address"
        },
        {
          "internalType": "address",
          "name": "",
          "type": "address"
        },
        {
          "internalType": "uint256",
          "name": "",
          "type": "uint256"
        }
      ],
      "name": "transferHistory",
      "outputs": [
        {
          "internalType": "address",
          "name": "fromDistrict",
          "type": "address"
        },
        {
          "internalType": "address",
          "name": "toSector",
          "type": "address"
        },
        {
          "internalType": "uint256",
          "name": "amount",
          "type": "uint256"
        }
      ],
      "stateMutability": "view",
      "type": "function"
    },
    {
      "inputs": [
        {
          "internalType": "address",
          "name": "",
          "type": "address"
        },
        {
          "internalType": "address",
          "name": "",
          "type": "address"
        }
      ],
      "name": "transferredFunds",
      "outputs": [
        {
          "internalType": "uint256",
          "name": "",
          "type": "uint256"
        }
      ],
      "stateMutability": "view",
      "type": "function"
    },
    {
      "inputs": [
        {
          "internalType": "address",
          "name": "organization",
          "type": "address"
        },
        {
          "internalType": "uint256",
          "name": "level",
          "type": "uint256"
        }
      ],
      "name": "setHierarchy",
      "outputs": [],
      "stateMutability": "nonpayable",
      "type": "function"
    },
    {
      "inputs": [
        {
          "internalType": "address",
          "name": "fromAddress",
          "type": "address"
        },
        {
          "internalType": "address",
          "name": "toAddress",
          "type": "address"
        }
      ],
      "name": "allocateFunds",
      "outputs": [],
      "stateMutability": "payable",
      "type": "function"
    },
    {
      "inputs": [
        {
          "internalType": "address",
          "name": "fromAddress",
          "type": "address"
        },
        {
          "internalType": "address",
          "name": "toAddress",
          "type": "address"
        },
        {
          "internalType": "uint256",
          "name": "amount",
          "type": "uint256"
        }
      ],
      "name": "transferFunds",
      "outputs": [],
      "stateMutability": "nonpayable",
      "type": "function"
    },
    {
      "inputs": [
        {
          "internalType": "address",
          "name": "_centralGov",
          "type": "address"
        }
      ],
      "name": "setCentralGov",
      "outputs": [],
      "stateMutability": "nonpayable",
      "type": "function"
    },
    {
      "inputs": [
        {
          "internalType": "address",
          "name": "_stateAddress",
          "type": "address"
        },
        {
          "internalType": "string",
          "name": "_stateName",
          "type": "string"
        }
      ],
      "name": "addState",
      "outputs": [],
      "stateMutability": "nonpayable",
      "type": "function"
    },
    {
      "inputs": [
        {
          "internalType": "address",
          "name": "_stateAddress",
          "type": "address"
        }
      ],
      "name": "removeState",
      "outputs": [],
      "stateMutability": "nonpayable",
      "type": "function"
    },
    {
      "inputs": [
        {
          "internalType": "address",
          "name": "_districtAddress",
          "type": "address"
        },
        {
          "internalType": "string",
          "name": "_districtName",
          "type": "string"
        }
      ],
      "name": "addDistrict",
      "outputs": [],
      "stateMutability": "nonpayable",
      "type": "function"
    },
    {
      "inputs": [
        {
          "internalType": "address",
          "name": "_districtAddress",
          "type": "address"
        }
      ],
      "name": "removeDistrict",
      "outputs": [],
      "stateMutability": "nonpayable",
      "type": "function"
    },
    {
      "inputs": [
        {
          "internalType": "address",
          "name": "_sectorAddress",
          "type": "address"
        },
        {
          "internalType": "string",
          "name": "_sectorName",
          "type": "string"
        }
      ],
      "name": "addSector",
      "outputs": [],
      "stateMutability": "nonpayable",
      "type": "function"
    },
    {
      "inputs": [
        {
          "internalType": "address",
          "name": "_sectorAddress",
          "type": "address"
        }
      ],
      "name": "removeSector",
      "outputs": [],
      "stateMutability": "nonpayable",
      "type": "function"
    },
    {
      "inputs": [
        {
          "internalType": "address",
          "name": "_contractorAddress",
          "type": "address"
        },
        {
          "internalType": "string",
          "name": "_contractorName",
          "type": "string"
        }
      ],
      "name": "addContractor",
      "outputs": [],
      "stateMutability": "nonpayable",
      "type": "function"
    },
    {
      "inputs": [
        {
          "internalType": "address",
          "name": "_contractorAddress",
          "type": "address"
        }
      ],
      "name": "removeContractor",
      "outputs": [],
      "stateMutability": "nonpayable",
      "type": "function"
    },
    {
      "inputs": [
        {
          "internalType": "address",
          "name": "_contractorAddress",
          "type": "address"
        },
        {
          "internalType": "string",
          "name": "_contractorName",
          "type": "string"
        }
      ],
      "name": "addSupplier",
      "outputs": [],
      "stateMutability": "nonpayable",
      "type": "function"
    },
    {
      "inputs": [
        {
          "internalType": "address",
          "name": "_contractorAddress",
          "type": "address"
        }
      ],
      "name": "removeSupplier",
      "outputs": [],
      "stateMutability": "nonpayable",
      "type": "function"
    }
  ],
  "bytecode": "0x608060405234801561000f575f80fd5b50335f806101000a81548173ffffffffffffffffffffffffffffffffffffffff021916908373ffffffffffffffffffffffffffffffffffffffff1602179055505f60015f6101000a81548173ffffffffffffffffffffffffffffffffffffffff021916908373ffffffffffffffffffffffffffffffffffffffff1602179055505f60025f3373ffffffffffffffffffffffffffffffffffffffff1673ffffffffffffffffffffffffffffffffffffffff1681526020019081526020015f2081905550613e5d806100de5f395ff3fe6080604052600436106101d6575f3560e01c80635c8fe4dc11610101578063a59003fa11610094578063cea2312111610063578063cea2312114610713578063d27a5d2714610750578063e77995e014610778578063fb6d25fe146107b5576101d6565b8063a59003fa14610649578063aed1061b14610685578063bd8976c4146106ad578063c7947166146106d5576101d6565b806372b73b05116100d057806372b73b051461057f5780637d5174f0146105bb5780638b5fded9146105f75780638da5cb5b1461061f576101d6565b80635c8fe4dc146104af57806361c0ee6d146104cb578063695f2b74146105075780636f31dc7514610543576101d6565b806325c3f413116101795780633ff36493116101485780633ff36493146103d2578063463365421461040f5780634bc381011461044b578063513d142614610487576101d6565b806325c3f4131461030757806326bed66614610343578063340c08771461036d5780633481a95a14610395576101d6565b80630f5f817a116101b55780630f5f817a14610267578063103d62751461028f5780631501bf03146102b75780631c933a3e146102df576101d6565b8062c4ea9f146101da578063017a9105146102025780630e44e7b11461023f575b5f80fd5b3480156101e5575f80fd5b5061020060048036038101906101fb9190612f68565b6107dd565b005b34801561020d575f80fd5b5061022860048036038101906102239190612fc6565b610a3e565b60405161023692919061308a565b60405180910390f35b34801561024a575f80fd5b5061026560048036038101906102609190612f68565b610b12565b005b348015610272575f80fd5b5061028d60048036038101906102889190612f68565b610d73565b005b34801561029a575f80fd5b506102b560048036038101906102b091906130b8565b610fd4565b005b3480156102c2575f80fd5b506102dd60048036038101906102d891906130f6565b611099565b005b3480156102ea575f80fd5b5061030560048036038101906103009190613272565b6114b0565b005b348015610312575f80fd5b5061032d600480360381019061032891906132cc565b61173d565b60405161033a9190613319565b60405180910390f35b34801561034e575f80fd5b5061035761175d565b6040516103649190613332565b60405180910390f35b348015610378575f80fd5b50610393600480360381019061038e9190612f68565b611782565b005b3480156103a0575f80fd5b506103bb60048036038101906103b69190612fc6565b611895565b6040516103c992919061308a565b60405180910390f35b3480156103dd575f80fd5b506103f860048036038101906103f39190612fc6565b611969565b60405161040692919061308a565b60405180910390f35b34801561041a575f80fd5b5061043560048036038101906104309190612f68565b611a3d565b6040516104429190613365565b60405180910390f35b348015610456575f80fd5b50610471600480360381019061046c91906132cc565b611a5a565b60405161047e9190613365565b60405180910390f35b348015610492575f80fd5b506104ad60048036038101906104a89190612f68565b611a84565b005b6104c960048036038101906104c491906132cc565b611ce5565b005b3480156104d6575f80fd5b506104f160048036038101906104ec91906132cc565b611f13565b6040516104fe9190613319565b60405180910390f35b348015610512575f80fd5b5061052d60048036038101906105289190612f68565b611f33565b60405161053a9190613319565b60405180910390f35b34801561054e575f80fd5b5061056960048036038101906105649190612f68565b611f48565b6040516105769190613365565b60405180910390f35b34801561058a575f80fd5b506105a560048036038101906105a09190612f68565b611f65565b6040516105b29190613365565b60405180910390f35b3480156105c6575f80fd5b506105e160048036038101906105dc9190612f68565b611f82565b6040516105ee9190613365565b60405180910390f35b348015610602575f80fd5b5061061d60048036038101906106189190613272565b611f9f565b005b34801561062a575f80fd5b5061063361222c565b6040516106409190613332565b60405180910390f35b348015610654575f80fd5b5061066f600480360381019061066a9190612f68565b61224f565b60405161067c9190613365565b60405180910390f35b348015610690575f80fd5b506106ab60048036038101906106a69190612f68565b61226c565b005b3480156106b8575f80fd5b506106d360048036038101906106ce9190613272565b6124cd565b005b3480156106e0575f80fd5b506106fb60048036038101906106f691906130f6565b61275a565b60405161070a9392919061337e565b60405180910390f35b34801561071e575f80fd5b5061073960048036038101906107349190612fc6565b6127e3565b60405161074792919061308a565b60405180910390f35b34801561075b575f80fd5b5061077660048036038101906107719190613272565b6128b7565b005b348015610783575f80fd5b5061079e60048036038101906107999190612fc6565b612b44565b6040516107ac92919061308a565b60405180910390f35b3480156107c0575f80fd5b506107db60048036038101906107d69190613272565b612c18565b005b5f8054906101000a900473ffffffffffffffffffffffffffffffffffffffff1673ffffffffffffffffffffffffffffffffffffffff163373ffffffffffffffffffffffffffffffffffffffff161461086a576040517f08c379a000000000000000000000000000000000000000000000000000000000815260040161086190613423565b60405180910390fd5b600b5f8273ffffffffffffffffffffffffffffffffffffffff1673ffffffffffffffffffffffffffffffffffffffff1681526020019081526020015f205f9054906101000a900460ff166108f3576040517f08c379a00000000000000000000000000000000000000000000000000000000081526004016108ea9061348b565b60405180910390fd5b5f5b600a80549050811015610a3a578173ffffffffffffffffffffffffffffffffffffffff16600a828154811061092d5761092c6134a9565b5b905f5260205f2090600202016001015f9054906101000a900473ffffffffffffffffffffffffffffffffffffffff1673ffffffffffffffffffffffffffffffffffffffff1603610a2757600a818154811061098b5761098a6134a9565b5b905f5260205f2090600202015f8082015f6109a69190612ea5565b600182015f6101000a81549073ffffffffffffffffffffffffffffffffffffffff021916905550505f600b5f8473ffffffffffffffffffffffffffffffffffffffff1673ffffffffffffffffffffffffffffffffffffffff1681526020019081526020015f205f6101000a81548160ff021916908315150217905550610a3a565b8080610a3290613503565b9150506108f5565b5050565b60088181548110610a4d575f80fd5b905f5260205f2090600202015f91509050805f018054610a6c90613577565b80601f0160208091040260200160405190810160405280929190818152602001828054610a9890613577565b8015610ae35780601f10610aba57610100808354040283529160200191610ae3565b820191905f5260205f20905b815481529060010190602001808311610ac657829003601f168201915b505050505090806001015f9054906101000a900473ffffffffffffffffffffffffffffffffffffffff16905082565b5f8054906101000a900473ffffffffffffffffffffffffffffffffffffffff1673ffffffffffffffffffffffffffffffffffffffff163373ffffffffffffffffffffffffffffffffffffffff1614610b9f576040517f08c379a0000000000000000000000000000000000000000000000000000000008152600401610b9690613423565b60405180910390fd5b600f5f8273ffffffffffffffffffffffffffffffffffffffff1673ffffffffffffffffffffffffffffffffffffffff1681526020019081526020015f205f9054906101000a900460ff16610c28576040517f08c379a0000000000000000000000000000000000000000000000000000000008152600401610c1f906135f1565b60405180910390fd5b5f5b600e80549050811015610d6f578173ffffffffffffffffffffffffffffffffffffffff16600e8281548110610c6257610c616134a9565b5b905f5260205f2090600202016001015f9054906101000a900473ffffffffffffffffffffffffffffffffffffffff1673ffffffffffffffffffffffffffffffffffffffff1603610d5c57600e8181548110610cc057610cbf6134a9565b5b905f5260205f2090600202015f8082015f610cdb9190612ea5565b600182015f6101000a81549073ffffffffffffffffffffffffffffffffffffffff021916905550505f600f5f8473ffffffffffffffffffffffffffffffffffffffff1673ffffffffffffffffffffffffffffffffffffffff1681526020019081526020015f205f6101000a81548160ff021916908315150217905550610d6f565b8080610d6790613503565b915050610c2a565b5050565b5f8054906101000a900473ffffffffffffffffffffffffffffffffffffffff1673ffffffffffffffffffffffffffffffffffffffff163373ffffffffffffffffffffffffffffffffffffffff1614610e00576040517f08c379a0000000000000000000000000000000000000000000000000000000008152600401610df790613423565b60405180910390fd5b600f5f8273ffffffffffffffffffffffffffffffffffffffff1673ffffffffffffffffffffffffffffffffffffffff1681526020019081526020015f205f9054906101000a900460ff16610e89576040517f08c379a0000000000000000000000000000000000000000000000000000000008152600401610e80906135f1565b60405180910390fd5b5f5b600e80549050811015610fd0578173ffffffffffffffffffffffffffffffffffffffff16600e8281548110610ec357610ec26134a9565b5b905f5260205f2090600202016001015f9054906101000a900473ffffffffffffffffffffffffffffffffffffffff1673ffffffffffffffffffffffffffffffffffffffff1603610fbd57600e8181548110610f2157610f206134a9565b5b905f5260205f2090600202015f8082015f610f3c9190612ea5565b600182015f6101000a81549073ffffffffffffffffffffffffffffffffffffffff021916905550505f600f5f8473ffffffffffffffffffffffffffffffffffffffff1673ffffffffffffffffffffffffffffffffffffffff1681526020019081526020015f205f6101000a81548160ff021916908315150217905550610fd0565b8080610fc890613503565b915050610e8b565b5050565b60025f3373ffffffffffffffffffffffffffffffffffffffff1673ffffffffffffffffffffffffffffffffffffffff1681526020019081526020015f20548111611053576040517f08c379a000000000000000000000000000000000000000000000000000000000815260040161104a9061367f565b60405180910390fd5b8060025f8473ffffffffffffffffffffffffffffffffffffffff1673ffffffffffffffffffffffffffffffffffffffff1681526020019081526020015f20819055505050565b8060035f8573ffffffffffffffffffffffffffffffffffffffff1673ffffffffffffffffffffffffffffffffffffffff1681526020019081526020015f205f8473ffffffffffffffffffffffffffffffffffffffff1673ffffffffffffffffffffffffffffffffffffffff1681526020019081526020015f20541015611154576040517f08c379a000000000000000000000000000000000000000000000000000000000815260040161114b906136e7565b60405180910390fd5b8060035f8573ffffffffffffffffffffffffffffffffffffffff1673ffffffffffffffffffffffffffffffffffffffff1681526020019081526020015f205f8473ffffffffffffffffffffffffffffffffffffffff1673ffffffffffffffffffffffffffffffffffffffff1681526020019081526020015f205f8282546111db9190613705565b925050819055508060045f8573ffffffffffffffffffffffffffffffffffffffff1673ffffffffffffffffffffffffffffffffffffffff1681526020019081526020015f205f8473ffffffffffffffffffffffffffffffffffffffff1673ffffffffffffffffffffffffffffffffffffffff1681526020019081526020015f205f8282546112699190613738565b9250508190555060055f8473ffffffffffffffffffffffffffffffffffffffff1673ffffffffffffffffffffffffffffffffffffffff1681526020019081526020015f205f8373ffffffffffffffffffffffffffffffffffffffff1673ffffffffffffffffffffffffffffffffffffffff1681526020019081526020015f2060405180606001604052808573ffffffffffffffffffffffffffffffffffffffff1681526020018473ffffffffffffffffffffffffffffffffffffffff16815260200183815250908060018154018082558091505060019003905f5260205f2090600302015f909190919091505f820151815f015f6101000a81548173ffffffffffffffffffffffffffffffffffffffff021916908373ffffffffffffffffffffffffffffffffffffffff1602179055506020820151816001015f6101000a81548173ffffffffffffffffffffffffffffffffffffffff021916908373ffffffffffffffffffffffffffffffffffffffff1602179055506040820151816002015550508173ffffffffffffffffffffffffffffffffffffffff168373ffffffffffffffffffffffffffffffffffffffff163373ffffffffffffffffffffffffffffffffffffffff167fe0f4ea6a918e93adb89b0f0bb9c18ee364aa4248b64ef5c401eea8742d6a63078460405161145f9190613319565b60405180910390a48173ffffffffffffffffffffffffffffffffffffffff166108fc8290811502906040515f60405180830381858888f193505050501580156114aa573d5f803e3d5ffd5b50505050565b5f8054906101000a900473ffffffffffffffffffffffffffffffffffffffff1673ffffffffffffffffffffffffffffffffffffffff163373ffffffffffffffffffffffffffffffffffffffff161461153d576040517f08c379a000000000000000000000000000000000000000000000000000000000815260040161153490613423565b60405180910390fd5b600f5f8373ffffffffffffffffffffffffffffffffffffffff1673ffffffffffffffffffffffffffffffffffffffff1681526020019081526020015f205f9054906101000a900460ff16156115c7576040517f08c379a00000000000000000000000000000000000000000000000000000000081526004016115be906137b5565b60405180910390fd5b5f60405180604001604052808381526020018473ffffffffffffffffffffffffffffffffffffffff168152509050600e81908060018154018082558091505060019003905f5260205f2090600202015f909190919091505f820151815f0190816116319190613970565b506020820151816001015f6101000a81548173ffffffffffffffffffffffffffffffffffffffff021916908373ffffffffffffffffffffffffffffffffffffffff16021790555050506001600f5f8573ffffffffffffffffffffffffffffffffffffffff1673ffffffffffffffffffffffffffffffffffffffff1681526020019081526020015f205f6101000a81548160ff0219169083151502179055503073ffffffffffffffffffffffffffffffffffffffff1663103d62758460066040518363ffffffff1660e01b815260040161170b929190613a78565b5f604051808303815f87803b158015611722575f80fd5b505af1158015611734573d5f803e3d5ffd5b50505050505050565b6003602052815f5260405f20602052805f5260405f205f91509150505481565b60015f9054906101000a900473ffffffffffffffffffffffffffffffffffffffff1681565b5f8054906101000a900473ffffffffffffffffffffffffffffffffffffffff1673ffffffffffffffffffffffffffffffffffffffff163373ffffffffffffffffffffffffffffffffffffffff161461180f576040517f08c379a000000000000000000000000000000000000000000000000000000000815260040161180690613423565b60405180910390fd5b8060015f6101000a81548173ffffffffffffffffffffffffffffffffffffffff021916908373ffffffffffffffffffffffffffffffffffffffff160217905550600160025f8373ffffffffffffffffffffffffffffffffffffffff1673ffffffffffffffffffffffffffffffffffffffff1681526020019081526020015f208190555050565b600e81815481106118a4575f80fd5b905f5260205f2090600202015f91509050805f0180546118c390613577565b80601f01602080910402602001604051908101604052809291908181526020018280546118ef90613577565b801561193a5780601f106119115761010080835404028352916020019161193a565b820191905f5260205f20905b81548152906001019060200180831161191d57829003601f168201915b505050505090806001015f9054906101000a900473ffffffffffffffffffffffffffffffffffffffff16905082565b600c8181548110611978575f80fd5b905f5260205f2090600202015f91509050805f01805461199790613577565b80601f01602080910402602001604051908101604052809291908181526020018280546119c390613577565b8015611a0e5780601f106119e557610100808354040283529160200191611a0e565b820191905f5260205f20905b8154815290600101906020018083116119f157829003601f168201915b505050505090806001015f9054906101000a900473ffffffffffffffffffffffffffffffffffffffff16905082565b6011602052805f5260405f205f915054906101000a900460ff1681565b6006602052815f5260405f20602052805f5260405f205f915091509054906101000a900460ff1681565b5f8054906101000a900473ffffffffffffffffffffffffffffffffffffffff1673ffffffffffffffffffffffffffffffffffffffff163373ffffffffffffffffffffffffffffffffffffffff1614611b11576040517f08c379a0000000000000000000000000000000000000000000000000000000008152600401611b0890613423565b60405180910390fd5b600d5f8273ffffffffffffffffffffffffffffffffffffffff1673ffffffffffffffffffffffffffffffffffffffff1681526020019081526020015f205f9054906101000a900460ff16611b9a576040517f08c379a0000000000000000000000000000000000000000000000000000000008152600401611b9190613ae9565b60405180910390fd5b5f5b600c80549050811015611ce1578173ffffffffffffffffffffffffffffffffffffffff16600c8281548110611bd457611bd36134a9565b5b905f5260205f2090600202016001015f9054906101000a900473ffffffffffffffffffffffffffffffffffffffff1673ffffffffffffffffffffffffffffffffffffffff1603611cce57600c8181548110611c3257611c316134a9565b5b905f5260205f2090600202015f8082015f611c4d9190612ea5565b600182015f6101000a81549073ffffffffffffffffffffffffffffffffffffffff021916905550505f600d5f8473ffffffffffffffffffffffffffffffffffffffff1673ffffffffffffffffffffffffffffffffffffffff1681526020019081526020015f205f6101000a81548160ff021916908315150217905550611ce1565b8080611cd990613503565b915050611b9c565b5050565b3460035f8473ffffffffffffffffffffffffffffffffffffffff1673ffffffffffffffffffffffffffffffffffffffff1681526020019081526020015f205f8373ffffffffffffffffffffffffffffffffffffffff1673ffffffffffffffffffffffffffffffffffffffff1681526020019081526020015f205f828254611d6c9190613738565b925050819055508073ffffffffffffffffffffffffffffffffffffffff168273ffffffffffffffffffffffffffffffffffffffff163373ffffffffffffffffffffffffffffffffffffffff167f3770108e97bde5ff5b5c39723a6eca55bc7f69ff1c634fd0d2f0392d39b0a8fc34604051611de79190613319565b60405180910390a45f151560065f8473ffffffffffffffffffffffffffffffffffffffff1673ffffffffffffffffffffffffffffffffffffffff1681526020019081526020015f205f8373ffffffffffffffffffffffffffffffffffffffff1673ffffffffffffffffffffffffffffffffffffffff1681526020019081526020015f205f9054906101000a900460ff16151503611f0f57600160065f8473ffffffffffffffffffffffffffffffffffffffff1673ffffffffffffffffffffffffffffffffffffffff1681526020019081526020015f205f8373ffffffffffffffffffffffffffffffffffffffff1673ffffffffffffffffffffffffffffffffffffffff1681526020019081526020015f205f6101000a81548160ff0219169083151502179055505b5050565b6004602052815f5260405f20602052805f5260405f205f91509150505481565b6002602052805f5260405f205f915090505481565b600d602052805f5260405f205f915054906101000a900460ff1681565b600f602052805f5260405f205f915054906101000a900460ff1681565b6009602052805f5260405f205f915054906101000a900460ff1681565b5f8054906101000a900473ffffffffffffffffffffffffffffffffffffffff1673ffffffffffffffffffffffffffffffffffffffff163373ffffffffffffffffffffffffffffffffffffffff161461202c576040517f08c379a000000000000000000000000000000000000000000000000000000000815260040161202390613423565b60405180910390fd5b600b5f8373ffffffffffffffffffffffffffffffffffffffff1673ffffffffffffffffffffffffffffffffffffffff1681526020019081526020015f205f9054906101000a900460ff16156120b6576040517f08c379a00000000000000000000000000000000000000000000000000000000081526004016120ad90613b51565b60405180910390fd5b5f60405180604001604052808381526020018473ffffffffffffffffffffffffffffffffffffffff168152509050600a81908060018154018082558091505060019003905f5260205f2090600202015f909190919091505f820151815f0190816121209190613970565b506020820151816001015f6101000a81548173ffffffffffffffffffffffffffffffffffffffff021916908373ffffffffffffffffffffffffffffffffffffffff16021790555050506001600b5f8573ffffffffffffffffffffffffffffffffffffffff1673ffffffffffffffffffffffffffffffffffffffff1681526020019081526020015f205f6101000a81548160ff0219169083151502179055503073ffffffffffffffffffffffffffffffffffffffff1663103d62758460026040518363ffffffff1660e01b81526004016121fa929190613ba8565b5f604051808303815f87803b158015612211575f80fd5b505af1158015612223573d5f803e3d5ffd5b50505050505050565b5f8054906101000a900473ffffffffffffffffffffffffffffffffffffffff1681565b600b602052805f5260405f205f915054906101000a900460ff1681565b5f8054906101000a900473ffffffffffffffffffffffffffffffffffffffff1673ffffffffffffffffffffffffffffffffffffffff163373ffffffffffffffffffffffffffffffffffffffff16146122f9576040517f08c379a00000000000000000000000000000000000000000000000000000000081526004016122f090613423565b60405180910390fd5b600b5f8273ffffffffffffffffffffffffffffffffffffffff1673ffffffffffffffffffffffffffffffffffffffff1681526020019081526020015f205f9054906101000a900460ff16612382576040517f08c379a000000000000000000000000000000000000000000000000000000000815260040161237990613c19565b60405180910390fd5b5f5b600a805490508110156124c9578173ffffffffffffffffffffffffffffffffffffffff16600a82815481106123bc576123bb6134a9565b5b905f5260205f2090600202016001015f9054906101000a900473ffffffffffffffffffffffffffffffffffffffff1673ffffffffffffffffffffffffffffffffffffffff16036124b657600a818154811061241a576124196134a9565b5b905f5260205f2090600202015f8082015f6124359190612ea5565b600182015f6101000a81549073ffffffffffffffffffffffffffffffffffffffff021916905550505f600b5f8473ffffffffffffffffffffffffffffffffffffffff1673ffffffffffffffffffffffffffffffffffffffff1681526020019081526020015f205f6101000a81548160ff0219169083151502179055506124c9565b80806124c190613503565b915050612384565b5050565b5f8054906101000a900473ffffffffffffffffffffffffffffffffffffffff1673ffffffffffffffffffffffffffffffffffffffff163373ffffffffffffffffffffffffffffffffffffffff161461255a576040517f08c379a000000000000000000000000000000000000000000000000000000000815260040161255190613423565b60405180910390fd5b600f5f8373ffffffffffffffffffffffffffffffffffffffff1673ffffffffffffffffffffffffffffffffffffffff1681526020019081526020015f205f9054906101000a900460ff16156125e4576040517f08c379a00000000000000000000000000000000000000000000000000000000081526004016125db906137b5565b60405180910390fd5b5f60405180604001604052808381526020018473ffffffffffffffffffffffffffffffffffffffff168152509050600e81908060018154018082558091505060019003905f5260205f2090600202015f909190919091505f820151815f01908161264e9190613970565b506020820151816001015f6101000a81548173ffffffffffffffffffffffffffffffffffffffff021916908373ffffffffffffffffffffffffffffffffffffffff16021790555050506001600f5f8573ffffffffffffffffffffffffffffffffffffffff1673ffffffffffffffffffffffffffffffffffffffff1681526020019081526020015f205f6101000a81548160ff0219169083151502179055503073ffffffffffffffffffffffffffffffffffffffff1663103d62758460056040518363ffffffff1660e01b8152600401612728929190613c70565b5f604051808303815f87803b15801561273f575f80fd5b505af1158015612751573d5f803e3d5ffd5b50505050505050565b6005602052825f5260405f20602052815f5260405f20818154811061277d575f80fd5b905f5260205f2090600302015f925092505050805f015f9054906101000a900473ffffffffffffffffffffffffffffffffffffffff1690806001015f9054906101000a900473ffffffffffffffffffffffffffffffffffffffff16908060020154905083565b601081815481106127f2575f80fd5b905f5260205f2090600202015f91509050805f01805461281190613577565b80601f016020809104026020016040519081016040528092919081815260200182805461283d90613577565b80156128885780601f1061285f57610100808354040283529160200191612888565b820191905f5260205f20905b81548152906001019060200180831161286b57829003601f168201915b505050505090806001015f9054906101000a900473ffffffffffffffffffffffffffffffffffffffff16905082565b5f8054906101000a900473ffffffffffffffffffffffffffffffffffffffff1673ffffffffffffffffffffffffffffffffffffffff163373ffffffffffffffffffffffffffffffffffffffff1614612944576040517f08c379a000000000000000000000000000000000000000000000000000000000815260040161293b90613423565b60405180910390fd5b600b5f8373ffffffffffffffffffffffffffffffffffffffff1673ffffffffffffffffffffffffffffffffffffffff1681526020019081526020015f205f9054906101000a900460ff16156129ce576040517f08c379a00000000000000000000000000000000000000000000000000000000081526004016129c590613ce1565b60405180910390fd5b5f60405180604001604052808381526020018473ffffffffffffffffffffffffffffffffffffffff168152509050600a81908060018154018082558091505060019003905f5260205f2090600202015f909190919091505f820151815f019081612a389190613970565b506020820151816001015f6101000a81548173ffffffffffffffffffffffffffffffffffffffff021916908373ffffffffffffffffffffffffffffffffffffffff16021790555050506001600b5f8573ffffffffffffffffffffffffffffffffffffffff1673ffffffffffffffffffffffffffffffffffffffff1681526020019081526020015f205f6101000a81548160ff0219169083151502179055503073ffffffffffffffffffffffffffffffffffffffff1663103d62758460036040518363ffffffff1660e01b8152600401612b12929190613d38565b5f604051808303815f87803b158015612b29575f80fd5b505af1158015612b3b573d5f803e3d5ffd5b50505050505050565b600a8181548110612b53575f80fd5b905f5260205f2090600202015f91509050805f018054612b7290613577565b80601f0160208091040260200160405190810160405280929190818152602001828054612b9e90613577565b8015612be95780601f10612bc057610100808354040283529160200191612be9565b820191905f5260205f20905b815481529060010190602001808311612bcc57829003601f168201915b505050505090806001015f9054906101000a900473ffffffffffffffffffffffffffffffffffffffff16905082565b5f8054906101000a900473ffffffffffffffffffffffffffffffffffffffff1673ffffffffffffffffffffffffffffffffffffffff163373ffffffffffffffffffffffffffffffffffffffff1614612ca5576040517f08c379a0000000000000000000000000000000000000000000000000000000008152600401612c9c90613423565b60405180910390fd5b600d5f8373ffffffffffffffffffffffffffffffffffffffff1673ffffffffffffffffffffffffffffffffffffffff1681526020019081526020015f205f9054906101000a900460ff1615612d2f576040517f08c379a0000000000000000000000000000000000000000000000000000000008152600401612d2690613da9565b60405180910390fd5b5f60405180604001604052808381526020018473ffffffffffffffffffffffffffffffffffffffff168152509050600c81908060018154018082558091505060019003905f5260205f2090600202015f909190919091505f820151815f019081612d999190613970565b506020820151816001015f6101000a81548173ffffffffffffffffffffffffffffffffffffffff021916908373ffffffffffffffffffffffffffffffffffffffff16021790555050506001600d5f8573ffffffffffffffffffffffffffffffffffffffff1673ffffffffffffffffffffffffffffffffffffffff1681526020019081526020015f205f6101000a81548160ff0219169083151502179055503073ffffffffffffffffffffffffffffffffffffffff1663103d62758460046040518363ffffffff1660e01b8152600401612e73929190613e00565b5f604051808303815f87803b158015612e8a575f80fd5b505af1158015612e9c573d5f803e3d5ffd5b50505050505050565b508054612eb190613577565b5f825580601f10612ec25750612edf565b601f0160209004905f5260205f2090810190612ede9190612ee2565b5b50565b5b80821115612ef9575f815f905550600101612ee3565b5090565b5f604051905090565b5f80fd5b5f80fd5b5f73ffffffffffffffffffffffffffffffffffffffff82169050919050565b5f612f3782612f0e565b9050919050565b612f4781612f2d565b8114612f51575f80fd5b50565b5f81359050612f6281612f3e565b92915050565b5f60208284031215612f7d57612f7c612f06565b5b5f612f8a84828501612f54565b91505092915050565b5f819050919050565b612fa581612f93565b8114612faf575f80fd5b50565b5f81359050612fc081612f9c565b92915050565b5f60208284031215612fdb57612fda612f06565b5b5f612fe884828501612fb2565b91505092915050565b5f81519050919050565b5f82825260208201905092915050565b5f5b8381101561302857808201518184015260208101905061300d565b5f8484015250505050565b5f601f19601f8301169050919050565b5f61304d82612ff1565b6130578185612ffb565b935061306781856020860161300b565b61307081613033565b840191505092915050565b61308481612f2d565b82525050565b5f6040820190508181035f8301526130a28185613043565b90506130b1602083018461307b565b9392505050565b5f80604083850312156130ce576130cd612f06565b5b5f6130db85828601612f54565b92505060206130ec85828601612fb2565b9150509250929050565b5f805f6060848603121561310d5761310c612f06565b5b5f61311a86828701612f54565b935050602061312b86828701612f54565b925050604061313c86828701612fb2565b9150509250925092565b5f80fd5b5f80fd5b7f4e487b71000000000000000000000000000000000000000000000000000000005f52604160045260245ffd5b61318482613033565b810181811067ffffffffffffffff821117156131a3576131a261314e565b5b80604052505050565b5f6131b5612efd565b90506131c1828261317b565b919050565b5f67ffffffffffffffff8211156131e0576131df61314e565b5b6131e982613033565b9050602081019050919050565b828183375f83830152505050565b5f613216613211846131c6565b6131ac565b9050828152602081018484840111156132325761323161314a565b5b61323d8482856131f6565b509392505050565b5f82601f83011261325957613258613146565b5b8135613269848260208601613204565b91505092915050565b5f806040838503121561328857613287612f06565b5b5f61329585828601612f54565b925050602083013567ffffffffffffffff8111156132b6576132b5612f0a565b5b6132c285828601613245565b9150509250929050565b5f80604083850312156132e2576132e1612f06565b5b5f6132ef85828601612f54565b925050602061330085828601612f54565b9150509250929050565b61331381612f93565b82525050565b5f60208201905061332c5f83018461330a565b92915050565b5f6020820190506133455f83018461307b565b92915050565b5f8115159050919050565b61335f8161334b565b82525050565b5f6020820190506133785f830184613356565b92915050565b5f6060820190506133915f83018661307b565b61339e602083018561307b565b6133ab604083018461330a565b949350505050565b7f4f6e6c7920746865206f776e65722063616e2063616c6c20746869732066756e5f8201527f6374696f6e2e0000000000000000000000000000000000000000000000000000602082015250565b5f61340d602683612ffb565b9150613418826133b3565b604082019050919050565b5f6020820190508181035f83015261343a81613401565b9050919050565b7f537461746520646f6573206e6f742065786973740000000000000000000000005f82015250565b5f613475601483612ffb565b915061348082613441565b602082019050919050565b5f6020820190508181035f8301526134a281613469565b9050919050565b7f4e487b71000000000000000000000000000000000000000000000000000000005f52603260045260245ffd5b7f4e487b71000000000000000000000000000000000000000000000000000000005f52601160045260245ffd5b5f61350d82612f93565b91507fffffffffffffffffffffffffffffffffffffffffffffffffffffffffffffffff820361353f5761353e6134d6565b5b600182019050919050565b7f4e487b71000000000000000000000000000000000000000000000000000000005f52602260045260245ffd5b5f600282049050600182168061358e57607f821691505b6020821081036135a1576135a061354a565b5b50919050565b7f436f6e74726163746f7220646f6573206e6f74206578697374732e00000000005f82015250565b5f6135db601b83612ffb565b91506135e6826135a7565b602082019050919050565b5f6020820190508181035f830152613608816135cf565b9050919050565b7f596f752063616e206f6e6c79207365742068696572617263687920666f72206c5f8201527f6f776572206f7267616e697a6174696f6e732e00000000000000000000000000602082015250565b5f613669603383612ffb565b91506136748261360f565b604082019050919050565b5f6020820190508181035f8301526136968161365d565b9050919050565b7f496e73756666696369656e7420616c6c6f63617465642066756e64732e0000005f82015250565b5f6136d1601d83612ffb565b91506136dc8261369d565b602082019050919050565b5f6020820190508181035f8301526136fe816136c5565b9050919050565b5f61370f82612f93565b915061371a83612f93565b9250828203905081811115613732576137316134d6565b5b92915050565b5f61374282612f93565b915061374d83612f93565b9250828201905080821115613765576137646134d6565b5b92915050565b7f436f6e74726163746f7220616c7265616479206578697374732e0000000000005f82015250565b5f61379f601a83612ffb565b91506137aa8261376b565b602082019050919050565b5f6020820190508181035f8301526137cc81613793565b9050919050565b5f819050815f5260205f209050919050565b5f6020601f8301049050919050565b5f82821b905092915050565b5f6008830261382f7fffffffffffffffffffffffffffffffffffffffffffffffffffffffffffffffff826137f4565b61383986836137f4565b95508019841693508086168417925050509392505050565b5f819050919050565b5f61387461386f61386a84612f93565b613851565b612f93565b9050919050565b5f819050919050565b61388d8361385a565b6138a16138998261387b565b848454613800565b825550505050565b5f90565b6138b56138a9565b6138c0818484613884565b505050565b5b818110156138e3576138d85f826138ad565b6001810190506138c6565b5050565b601f821115613928576138f9816137d3565b613902846137e5565b81016020851015613911578190505b61392561391d856137e5565b8301826138c5565b50505b505050565b5f82821c905092915050565b5f6139485f198460080261392d565b1980831691505092915050565b5f6139608383613939565b9150826002028217905092915050565b61397982612ff1565b67ffffffffffffffff8111156139925761399161314e565b5b61399c8254613577565b6139a78282856138e7565b5f60209050601f8311600181146139d8575f84156139c6578287015190505b6139d08582613955565b865550613a37565b601f1984166139e6866137d3565b5f5b82811015613a0d578489015182556001820191506020850194506020810190506139e8565b86831015613a2a5784890151613a26601f891682613939565b8355505b6001600288020188555050505b505050505050565b5f819050919050565b5f613a62613a5d613a5884613a3f565b613851565b612f93565b9050919050565b613a7281613a48565b82525050565b5f604082019050613a8b5f83018561307b565b613a986020830184613a69565b9392505050565b7f536563746f7220646f6573206e6f7420657869737400000000000000000000005f82015250565b5f613ad3601583612ffb565b9150613ade82613a9f565b602082019050919050565b5f6020820190508181035f830152613b0081613ac7565b9050919050565b7f537461746520616c7265616479206578697374732e00000000000000000000005f82015250565b5f613b3b601583612ffb565b9150613b4682613b07565b602082019050919050565b5f6020820190508181035f830152613b6881613b2f565b9050919050565b5f819050919050565b5f613b92613b8d613b8884613b6f565b613851565b612f93565b9050919050565b613ba281613b78565b82525050565b5f604082019050613bbb5f83018561307b565b613bc86020830184613b99565b9392505050565b7f446973747269637420646f6573206e6f742065786973740000000000000000005f82015250565b5f613c03601783612ffb565b9150613c0e82613bcf565b602082019050919050565b5f6020820190508181035f830152613c3081613bf7565b9050919050565b5f819050919050565b5f613c5a613c55613c5084613c37565b613851565b612f93565b9050919050565b613c6a81613c40565b82525050565b5f604082019050613c835f83018561307b565b613c906020830184613c61565b9392505050565b7f446973747269637420616c7265616479206578697374732e00000000000000005f82015250565b5f613ccb601883612ffb565b9150613cd682613c97565b602082019050919050565b5f6020820190508181035f830152613cf881613cbf565b9050919050565b5f819050919050565b5f613d22613d1d613d1884613cff565b613851565b612f93565b9050919050565b613d3281613d08565b82525050565b5f604082019050613d4b5f83018561307b565b613d586020830184613d29565b9392505050565b7f536563746f7220616c7265616479206578697374732e000000000000000000005f82015250565b5f613d93601683612ffb565b9150613d9e82613d5f565b602082019050919050565b5f6020820190508181035f830152613dc081613d87565b9050919050565b5f819050919050565b5f613dea613de5613de084613dc7565b613851565b612f93565b9050919050565b613dfa81613dd0565b82525050565b5f604082019050613e135f83018561307b565b613e206020830184613df1565b939250505056fea2646970667358221220718995c7f73f0dc7175bf4cec5abe829d39ab384880da6923ffd909ec2f97ad164736f6c63430008140033",
  "immutableReferences": {},
  "source": "// SPDX-License-Identifier: MIT\npragma solidity ^0.8.0;\n\ncontract FundMonitor {\n    // global variable & modifier\n    address public owner;\n    address public centralGov;\n    mapping(address => uint256) public hierarchy; // Maps organization address to hierarchy level\n\n    modifier onlyOwner() {\n        require(msg.sender == owner, \"Only the owner can call this function.\");\n        _;\n    }\n\n    modifier onlyHigherHierarchy() {\n        require(\n            hierarchy[msg.sender] < hierarchy[centralGov],\n            \"Only higher hierarchy organizations can call this function.\"\n        );\n        _;\n    }\n\n    // Fund monitor Code\n    struct Transfer {\n        address fromDistrict;\n        address toSector;\n        uint256 amount;\n    }\n\n    mapping(address => mapping(address => uint256)) public allocatedFunds;\n    mapping(address => mapping(address => uint256)) public transferredFunds;\n    mapping(address => mapping(address => Transfer[])) public transferHistory;\n\n    mapping(address => mapping(address => bool)) public isDistrictSector; // to check if the sector belongs to that district\n\n    event FundsAllocated(\n        address indexed sender,\n        address indexed district,\n        address indexed sector,\n        uint256 amount\n    );\n    event FundsTransferred(\n        address indexed sender,\n        address indexed fromDistrict,\n        address indexed toSector,\n        uint256 amount\n    );\n\n    constructor() {\n        owner = msg.sender;\n        centralGov = address(0); // Set the central government address initially to address(0)\n        hierarchy[msg.sender] = 0; // Owner (deployer of the contract) is assigned the highest hierarchy (0)\n    }\n\n\n    function setHierarchy(address organization, uint256 level) external {\n        require(level > hierarchy[msg.sender], \"You can only set hierarchy for lower organizations.\");\n        hierarchy[organization] = level;\n    }\n\n    function allocateFunds(address fromAddress, address toAddress)\n        external\n        payable\n    {\n        allocatedFunds[fromAddress][toAddress] += msg.value;\n        emit FundsAllocated(msg.sender, fromAddress, toAddress, msg.value);\n\n        if (isDistrictSector[fromAddress][toAddress] == false) {\n            isDistrictSector[fromAddress][toAddress] = true;\n        }\n    }\n\n    function transferFunds(\n        address fromAddress,\n        address toAddress,\n        uint256 amount\n    ) external {\n        require(\n            allocatedFunds[fromAddress][toAddress] >= amount,\n            \"Insufficient allocated funds.\"\n        );\n        allocatedFunds[fromAddress][toAddress] -= amount;\n        transferredFunds[fromAddress][toAddress] += amount;\n        transferHistory[fromAddress][toAddress].push(\n            Transfer(fromAddress, toAddress, amount)\n        );\n        emit FundsTransferred(msg.sender, fromAddress, toAddress, amount);\n        payable(toAddress).transfer(amount);\n    }\n\n    // -------------FUND MONITOR ends.-------------\n    //  CENTRAL GOVENRMENT code.\n    struct Central {\n        address centralAddress;\n    }\n    Central central;\n    \n    function setCentralGov(address _centralGov) external onlyOwner {\n        centralGov = _centralGov;\n        hierarchy[_centralGov] = 1; // Central government is assigned hierarchy 1\n    }\n\n    // ----------------CENTRAL GOVERNMENT ENDS.----------------\n    //  STATE code.\n    struct State {\n        string nameOfState;\n        address stateAddress;\n    }\n\n    State[] public states;\n    mapping(address => bool) public isState;\n\n    function addState (address _stateAddress, string memory _stateName)\n        public\n        onlyOwner\n    {\n        require(!isDistrict[_stateAddress], \"State already exists.\");\n        District memory newDistrict = District(_stateName, _stateAddress);\n        districts.push(newDistrict);\n        isDistrict[_stateAddress] = true;\n        this.setHierarchy(_stateAddress, 2);\n    }\n\n    function removeState(address _stateAddress) \n        public\n        onlyOwner \n        \n    {\n        require(isDistrict[_stateAddress], \"State does not exist\");\n\n        for (uint256 i = 0; i < districts.length; i++) {\n            if (districts[i].districtAddress == _stateAddress) {\n                delete districts[i];\n                isDistrict[_stateAddress] = false;\n                break;\n            }\n        }\n    }\n    // ----------------STATE ENDS.----------------\n    //  DISTRICT code.\n    struct District {\n        string nameOfDistrict;\n        address districtAddress;\n    }\n\n    District[] public districts;\n    mapping(address => bool) public isDistrict;\n\n    function addDistrict(address _districtAddress, string memory _districtName)\n        public\n        onlyOwner\n        \n    {\n        require(!isDistrict[_districtAddress], \"District already exists.\");\n        District memory newDistrict = District(_districtName, _districtAddress);\n        districts.push(newDistrict);\n        isDistrict[_districtAddress] = true;\n        this.setHierarchy(_districtAddress, 3);\n    }\n\n    function removeDistrict(address _districtAddress)\n        public\n        onlyOwner\n        \n    {\n        require(isDistrict[_districtAddress], \"District does not exist\");\n\n        for (uint256 i = 0; i < districts.length; i++) {\n            if (districts[i].districtAddress == _districtAddress) {\n                delete districts[i];\n                isDistrict[_districtAddress] = false;\n                break;\n            }\n        }\n    }\n    // ----------------DISTRICT ENDS.----------------\n    // code for SECTORS\n    struct Sectors {\n        string nameOfSectors;\n        address sectorAddress;\n    }\n\n    Sectors[] public sectors;\n    mapping(address => bool) public isSector;\n\n    function addSector(address _sectorAddress, string memory _sectorName)\n        public\n        onlyOwner    \n    {\n        require(!isSector[_sectorAddress], \"Sector already exists.\");\n        Sectors memory newSector = Sectors(_sectorName, _sectorAddress);\n        sectors.push(newSector);\n        isSector[_sectorAddress] = true;\n        this.setHierarchy(_sectorAddress, 4);\n    }\n\n    function removeSector(address _sectorAddress) \n        public \n        onlyOwner\n         \n    {\n        require(isSector[_sectorAddress], \"Sector does not exist\");\n\n        for (uint256 i = 0; i < sectors.length; i++) {\n            if (sectors[i].sectorAddress == _sectorAddress) {\n                delete sectors[i];\n                isSector[_sectorAddress] = false;\n                break;\n            }\n        }\n    }\n\n    // ----------------SECTOR ENDS.----------------\n    // code for CONTRACTORS\n    struct Contractor {\n        string nameOfContractor;\n        address contractorAddress;\n    }\n\n    Contractor[] public contractors;\n    mapping(address => bool) public isContractor;\n\n    function addContractor(address _contractorAddress, string memory _contractorName)\n        public \n        onlyOwner\n    {\n        require(!isContractor[_contractorAddress], \"Contractor already exists.\");\n        Contractor memory newcontractor = Contractor(_contractorName, _contractorAddress);\n        contractors.push(newcontractor);\n        isContractor[_contractorAddress] = true;\n        this.setHierarchy(_contractorAddress, 5);\n    }\n\n    function removeContractor(address _contractorAddress) \n        public \n        onlyOwner\n    {\n        require(isContractor[_contractorAddress], \"Contractor does not exists.\");\n\n        for (uint256 i = 0; i < contractors.length; i++) {\n            if (contractors[i].contractorAddress == _contractorAddress) {\n                delete contractors[i];\n                isContractor[_contractorAddress] = false;\n                break;\n            }\n        }\n    }\n    // ----------------COTRACTOR ENDS.----------------\n    // code for SUPPLIERS\n    struct Supplier {\n        string nameOfContractor;\n        address contractorAddress;\n    }\n\n    Supplier[] public suppliers;\n    mapping(address => bool) public isSupplier;\n\n    function addSupplier(address _contractorAddress, string memory _contractorName) \n        public \n        onlyOwner\n    {\n        require(!isContractor[_contractorAddress], \"Contractor already exists.\");\n        Contractor memory newcontractor = Contractor(_contractorName, _contractorAddress);\n        contractors.push(newcontractor);\n        isContractor[_contractorAddress] = true;\n        this.setHierarchy(_contractorAddress, 6);\n    }\n\n    function removeSupplier(address _contractorAddress) \n        public \n        onlyOwner  \n    {\n        require(isContractor[_contractorAddress], \"Contractor does not exists.\");\n\n        for (uint256 i = 0; i < contractors.length; i++) {\n            if (contractors[i].contractorAddress == _contractorAddress) {\n                delete contractors[i];\n                isContractor[_contractorAddress] = false;\n                break;\n            }\n        }\n    }\n    // ----------------SUPPLIER ENDS.----------------\n}\n",
  "sourcePath": "/home/fatguy/Desktop/codes/web3/TaxRevenueTransparency/contracts/FundMonitor.sol",
  "compiler": {
    "name": "solc",
    "version": "0.8.20+commit.a1b79de6.Emscripten.clang"
  },
  "schemaVersion": "3.4.14",
  "updatedAt": "2023-07-20T14:48:21.245Z",
  "devdoc": {
    "kind": "dev",
    "methods": {},
    "version": 1
  },
  "userdoc": {
    "kind": "user",
    "methods": {},
    "version": 1
  }
}