{
  "contractName": "FundMonitor",
  "abi": [
    {
      "inputs": [],
      "stateMutability": "nonpayable",
      "type": "constructor"
    },
    {
      "anonymous": false,
      "inputs": [
        {
          "indexed": true,
          "internalType": "address",
          "name": "sender",
          "type": "address"
        },
        {
          "indexed": true,
          "internalType": "address",
          "name": "district",
          "type": "address"
        },
        {
          "indexed": true,
          "internalType": "address",
          "name": "sector",
          "type": "address"
        },
        {
          "indexed": false,
          "internalType": "uint256",
          "name": "amount",
          "type": "uint256"
        }
      ],
      "name": "FundsAllocated",
      "type": "event"
    },
    {
      "anonymous": false,
      "inputs": [
        {
          "indexed": true,
          "internalType": "address",
          "name": "sender",
          "type": "address"
        },
        {
          "indexed": true,
          "internalType": "address",
          "name": "fromDistrict",
          "type": "address"
        },
        {
          "indexed": true,
          "internalType": "address",
          "name": "toSector",
          "type": "address"
        },
        {
          "indexed": false,
          "internalType": "uint256",
          "name": "amount",
          "type": "uint256"
        }
      ],
      "name": "FundsTransferred",
      "type": "event"
    },
    {
      "inputs": [
        {
          "internalType": "address",
          "name": "",
          "type": "address"
        },
        {
          "internalType": "address",
          "name": "",
          "type": "address"
        }
      ],
      "name": "allocatedFunds",
      "outputs": [
        {
          "internalType": "uint256",
          "name": "",
          "type": "uint256"
        }
      ],
      "stateMutability": "view",
      "type": "function"
    },
    {
      "inputs": [
        {
          "internalType": "uint256",
          "name": "",
          "type": "uint256"
        }
      ],
      "name": "contractors",
      "outputs": [
        {
          "internalType": "string",
          "name": "nameOfContractor",
          "type": "string"
        },
        {
          "internalType": "address",
          "name": "contractorAddress",
          "type": "address"
        }
      ],
      "stateMutability": "view",
      "type": "function"
    },
    {
      "inputs": [
        {
          "internalType": "uint256",
          "name": "",
          "type": "uint256"
        }
      ],
      "name": "districts",
      "outputs": [
        {
          "internalType": "string",
          "name": "nameOfDistrict",
          "type": "string"
        },
        {
          "internalType": "address",
          "name": "districtAddress",
          "type": "address"
        }
      ],
      "stateMutability": "view",
      "type": "function"
    },
    {
      "inputs": [
        {
          "internalType": "address",
          "name": "",
          "type": "address"
        }
      ],
      "name": "isContractor",
      "outputs": [
        {
          "internalType": "bool",
          "name": "",
          "type": "bool"
        }
      ],
      "stateMutability": "view",
      "type": "function"
    },
    {
      "inputs": [
        {
          "internalType": "address",
          "name": "",
          "type": "address"
        }
      ],
      "name": "isDistrict",
      "outputs": [
        {
          "internalType": "bool",
          "name": "",
          "type": "bool"
        }
      ],
      "stateMutability": "view",
      "type": "function"
    },
    {
      "inputs": [
        {
          "internalType": "address",
          "name": "",
          "type": "address"
        },
        {
          "internalType": "address",
          "name": "",
          "type": "address"
        }
      ],
      "name": "isDistrictSector",
      "outputs": [
        {
          "internalType": "bool",
          "name": "",
          "type": "bool"
        }
      ],
      "stateMutability": "view",
      "type": "function"
    },
    {
      "inputs": [
        {
          "internalType": "address",
          "name": "",
          "type": "address"
        }
      ],
      "name": "isSector",
      "outputs": [
        {
          "internalType": "bool",
          "name": "",
          "type": "bool"
        }
      ],
      "stateMutability": "view",
      "type": "function"
    },
    {
      "inputs": [
        {
          "internalType": "address",
          "name": "",
          "type": "address"
        }
      ],
      "name": "isSupplier",
      "outputs": [
        {
          "internalType": "bool",
          "name": "",
          "type": "bool"
        }
      ],
      "stateMutability": "view",
      "type": "function"
    },
    {
      "inputs": [],
      "name": "owner",
      "outputs": [
        {
          "internalType": "address",
          "name": "",
          "type": "address"
        }
      ],
      "stateMutability": "view",
      "type": "function"
    },
    {
      "inputs": [
        {
          "internalType": "uint256",
          "name": "",
          "type": "uint256"
        }
      ],
      "name": "sectors",
      "outputs": [
        {
          "internalType": "string",
          "name": "nameOfSectors",
          "type": "string"
        },
        {
          "internalType": "address",
          "name": "sectorAddress",
          "type": "address"
        }
      ],
      "stateMutability": "view",
      "type": "function"
    },
    {
      "inputs": [
        {
          "internalType": "uint256",
          "name": "",
          "type": "uint256"
        }
      ],
      "name": "suppliers",
      "outputs": [
        {
          "internalType": "string",
          "name": "nameOfContractor",
          "type": "string"
        },
        {
          "internalType": "address",
          "name": "contractorAddress",
          "type": "address"
        }
      ],
      "stateMutability": "view",
      "type": "function"
    },
    {
      "inputs": [
        {
          "internalType": "address",
          "name": "",
          "type": "address"
        },
        {
          "internalType": "address",
          "name": "",
          "type": "address"
        },
        {
          "internalType": "uint256",
          "name": "",
          "type": "uint256"
        }
      ],
      "name": "transferHistory",
      "outputs": [
        {
          "internalType": "address",
          "name": "fromDistrict",
          "type": "address"
        },
        {
          "internalType": "address",
          "name": "toSector",
          "type": "address"
        },
        {
          "internalType": "uint256",
          "name": "amount",
          "type": "uint256"
        }
      ],
      "stateMutability": "view",
      "type": "function"
    },
    {
      "inputs": [
        {
          "internalType": "address",
          "name": "",
          "type": "address"
        },
        {
          "internalType": "address",
          "name": "",
          "type": "address"
        }
      ],
      "name": "transferredFunds",
      "outputs": [
        {
          "internalType": "uint256",
          "name": "",
          "type": "uint256"
        }
      ],
      "stateMutability": "view",
      "type": "function"
    },
    {
      "inputs": [
        {
          "internalType": "address",
          "name": "fromAddress",
          "type": "address"
        },
        {
          "internalType": "address",
          "name": "toAddress",
          "type": "address"
        }
      ],
      "name": "allocateFunds",
      "outputs": [],
      "stateMutability": "payable",
      "type": "function"
    },
    {
      "inputs": [
        {
          "internalType": "address",
          "name": "fromAddress",
          "type": "address"
        },
        {
          "internalType": "address",
          "name": "toAddress",
          "type": "address"
        },
        {
          "internalType": "uint256",
          "name": "amount",
          "type": "uint256"
        }
      ],
      "name": "transferFunds",
      "outputs": [],
      "stateMutability": "nonpayable",
      "type": "function"
    },
    {
      "inputs": [
        {
          "internalType": "address",
          "name": "_districtAddress",
          "type": "address"
        },
        {
          "internalType": "string",
          "name": "_districtName",
          "type": "string"
        }
      ],
      "name": "addDistrict",
      "outputs": [],
      "stateMutability": "nonpayable",
      "type": "function"
    },
    {
      "inputs": [
        {
          "internalType": "address",
          "name": "_districtAddress",
          "type": "address"
        }
      ],
      "name": "removeDistrict",
      "outputs": [],
      "stateMutability": "nonpayable",
      "type": "function"
    },
    {
      "inputs": [
        {
          "internalType": "address",
          "name": "_sectorAddress",
          "type": "address"
        },
        {
          "internalType": "string",
          "name": "_sectorName",
          "type": "string"
        }
      ],
      "name": "addSector",
      "outputs": [],
      "stateMutability": "nonpayable",
      "type": "function"
    },
    {
      "inputs": [
        {
          "internalType": "address",
          "name": "_sectorAddress",
          "type": "address"
        }
      ],
      "name": "removeSector",
      "outputs": [],
      "stateMutability": "nonpayable",
      "type": "function"
    },
    {
      "inputs": [
        {
          "internalType": "address",
          "name": "_contractorAddress",
          "type": "address"
        },
        {
          "internalType": "string",
          "name": "_contractorName",
          "type": "string"
        }
      ],
      "name": "addContractor",
      "outputs": [],
      "stateMutability": "nonpayable",
      "type": "function"
    },
    {
      "inputs": [
        {
          "internalType": "address",
          "name": "_contractorAddress",
          "type": "address"
        }
      ],
      "name": "removeContractor",
      "outputs": [],
      "stateMutability": "nonpayable",
      "type": "function"
    },
    {
      "inputs": [
        {
          "internalType": "address",
          "name": "_contractorAddress",
          "type": "address"
        },
        {
          "internalType": "string",
          "name": "_contractorName",
          "type": "string"
        }
      ],
      "name": "addSupplier",
      "outputs": [],
      "stateMutability": "nonpayable",
      "type": "function"
    },
    {
      "inputs": [
        {
          "internalType": "address",
          "name": "_contractorAddress",
          "type": "address"
        }
      ],
      "name": "removeSupplier",
      "outputs": [],
      "stateMutability": "nonpayable",
      "type": "function"
    }
  ],
  "bytecode": "0x608060405234801561000f575f80fd5b50335f806101000a81548173ffffffffffffffffffffffffffffffffffffffff021916908373ffffffffffffffffffffffffffffffffffffffff160217905550612f368061005c5f395ff3fe60806040526004361061013f575f3560e01c806361c0ee6d116100b5578063bd8976c41161006e578063bd8976c414610497578063c7947166146104bf578063cea23121146104fd578063d27a5d271461053a578063e77995e014610562578063fb6d25fe1461059f5761013f565b806361c0ee6d146103555780636f31dc751461039157806372b73b05146103cd5780638da5cb5b14610409578063a59003fa14610433578063aed1061b1461046f5761013f565b80633481a95a116101075780633481a95a1461021f5780633ff364931461025c57806346336542146102995780634bc38101146102d5578063513d1426146103115780635c8fe4dc146103395761013f565b80630e44e7b1146101435780630f5f817a1461016b5780631501bf03146101935780631c933a3e146101bb57806325c3f413146101e3575b5f80fd5b34801561014e575f80fd5b50610169600480360381019061016491906123bd565b6105c7565b005b348015610176575f80fd5b50610191600480360381019061018c91906123bd565b610828565b005b34801561019e575f80fd5b506101b960048036038101906101b4919061241b565b610a89565b005b3480156101c6575f80fd5b506101e160048036038101906101dc91906125a7565b610ea0565b005b3480156101ee575f80fd5b5061020960048036038101906102049190612601565b6110c4565b604051610216919061264e565b60405180910390f35b34801561022a575f80fd5b5061024560048036038101906102409190612667565b6110e4565b60405161025392919061271b565b60405180910390f35b348015610267575f80fd5b50610282600480360381019061027d9190612667565b6111b8565b60405161029092919061271b565b60405180910390f35b3480156102a4575f80fd5b506102bf60048036038101906102ba91906123bd565b61128c565b6040516102cc9190612763565b60405180910390f35b3480156102e0575f80fd5b506102fb60048036038101906102f69190612601565b6112a9565b6040516103089190612763565b60405180910390f35b34801561031c575f80fd5b50610337600480360381019061033291906123bd565b6112d3565b005b610353600480360381019061034e9190612601565b611534565b005b348015610360575f80fd5b5061037b60048036038101906103769190612601565b611762565b604051610388919061264e565b60405180910390f35b34801561039c575f80fd5b506103b760048036038101906103b291906123bd565b611782565b6040516103c49190612763565b60405180910390f35b3480156103d8575f80fd5b506103f360048036038101906103ee91906123bd565b61179f565b6040516104009190612763565b60405180910390f35b348015610414575f80fd5b5061041d6117bc565b60405161042a919061277c565b60405180910390f35b34801561043e575f80fd5b50610459600480360381019061045491906123bd565b6117df565b6040516104669190612763565b60405180910390f35b34801561047a575f80fd5b50610495600480360381019061049091906123bd565b6117fc565b005b3480156104a2575f80fd5b506104bd60048036038101906104b891906125a7565b611a5d565b005b3480156104ca575f80fd5b506104e560048036038101906104e0919061241b565b611c81565b6040516104f493929190612795565b60405180910390f35b348015610508575f80fd5b50610523600480360381019061051e9190612667565b611d0a565b60405161053192919061271b565b60405180910390f35b348015610545575f80fd5b50610560600480360381019061055b91906125a7565b611dde565b005b34801561056d575f80fd5b5061058860048036038101906105839190612667565b612002565b60405161059692919061271b565b60405180910390f35b3480156105aa575f80fd5b506105c560048036038101906105c091906125a7565b6120d6565b005b5f8054906101000a900473ffffffffffffffffffffffffffffffffffffffff1673ffffffffffffffffffffffffffffffffffffffff163373ffffffffffffffffffffffffffffffffffffffff1614610654576040517f08c379a000000000000000000000000000000000000000000000000000000000815260040161064b9061283a565b60405180910390fd5b600a5f8273ffffffffffffffffffffffffffffffffffffffff1673ffffffffffffffffffffffffffffffffffffffff1681526020019081526020015f205f9054906101000a900460ff166106dd576040517f08c379a00000000000000000000000000000000000000000000000000000000081526004016106d4906128a2565b60405180910390fd5b5f5b600980549050811015610824578173ffffffffffffffffffffffffffffffffffffffff1660098281548110610717576107166128c0565b5b905f5260205f2090600202016001015f9054906101000a900473ffffffffffffffffffffffffffffffffffffffff1673ffffffffffffffffffffffffffffffffffffffff16036108115760098181548110610775576107746128c0565b5b905f5260205f2090600202015f8082015f61079091906122fa565b600182015f6101000a81549073ffffffffffffffffffffffffffffffffffffffff021916905550505f600a5f8473ffffffffffffffffffffffffffffffffffffffff1673ffffffffffffffffffffffffffffffffffffffff1681526020019081526020015f205f6101000a81548160ff021916908315150217905550610824565b808061081c9061291a565b9150506106df565b5050565b5f8054906101000a900473ffffffffffffffffffffffffffffffffffffffff1673ffffffffffffffffffffffffffffffffffffffff163373ffffffffffffffffffffffffffffffffffffffff16146108b5576040517f08c379a00000000000000000000000000000000000000000000000000000000081526004016108ac9061283a565b60405180910390fd5b600a5f8273ffffffffffffffffffffffffffffffffffffffff1673ffffffffffffffffffffffffffffffffffffffff1681526020019081526020015f205f9054906101000a900460ff1661093e576040517f08c379a0000000000000000000000000000000000000000000000000000000008152600401610935906128a2565b60405180910390fd5b5f5b600980549050811015610a85578173ffffffffffffffffffffffffffffffffffffffff1660098281548110610978576109776128c0565b5b905f5260205f2090600202016001015f9054906101000a900473ffffffffffffffffffffffffffffffffffffffff1673ffffffffffffffffffffffffffffffffffffffff1603610a7257600981815481106109d6576109d56128c0565b5b905f5260205f2090600202015f8082015f6109f191906122fa565b600182015f6101000a81549073ffffffffffffffffffffffffffffffffffffffff021916905550505f600a5f8473ffffffffffffffffffffffffffffffffffffffff1673ffffffffffffffffffffffffffffffffffffffff1681526020019081526020015f205f6101000a81548160ff021916908315150217905550610a85565b8080610a7d9061291a565b915050610940565b5050565b8060015f8573ffffffffffffffffffffffffffffffffffffffff1673ffffffffffffffffffffffffffffffffffffffff1681526020019081526020015f205f8473ffffffffffffffffffffffffffffffffffffffff1673ffffffffffffffffffffffffffffffffffffffff1681526020019081526020015f20541015610b44576040517f08c379a0000000000000000000000000000000000000000000000000000000008152600401610b3b906129ab565b60405180910390fd5b8060015f8573ffffffffffffffffffffffffffffffffffffffff1673ffffffffffffffffffffffffffffffffffffffff1681526020019081526020015f205f8473ffffffffffffffffffffffffffffffffffffffff1673ffffffffffffffffffffffffffffffffffffffff1681526020019081526020015f205f828254610bcb91906129c9565b925050819055508060025f8573ffffffffffffffffffffffffffffffffffffffff1673ffffffffffffffffffffffffffffffffffffffff1681526020019081526020015f205f8473ffffffffffffffffffffffffffffffffffffffff1673ffffffffffffffffffffffffffffffffffffffff1681526020019081526020015f205f828254610c5991906129fc565b9250508190555060035f8473ffffffffffffffffffffffffffffffffffffffff1673ffffffffffffffffffffffffffffffffffffffff1681526020019081526020015f205f8373ffffffffffffffffffffffffffffffffffffffff1673ffffffffffffffffffffffffffffffffffffffff1681526020019081526020015f2060405180606001604052808573ffffffffffffffffffffffffffffffffffffffff1681526020018473ffffffffffffffffffffffffffffffffffffffff16815260200183815250908060018154018082558091505060019003905f5260205f2090600302015f909190919091505f820151815f015f6101000a81548173ffffffffffffffffffffffffffffffffffffffff021916908373ffffffffffffffffffffffffffffffffffffffff1602179055506020820151816001015f6101000a81548173ffffffffffffffffffffffffffffffffffffffff021916908373ffffffffffffffffffffffffffffffffffffffff1602179055506040820151816002015550508173ffffffffffffffffffffffffffffffffffffffff168373ffffffffffffffffffffffffffffffffffffffff163373ffffffffffffffffffffffffffffffffffffffff167fe0f4ea6a918e93adb89b0f0bb9c18ee364aa4248b64ef5c401eea8742d6a630784604051610e4f919061264e565b60405180910390a48173ffffffffffffffffffffffffffffffffffffffff166108fc8290811502906040515f60405180830381858888f19350505050158015610e9a573d5f803e3d5ffd5b50505050565b5f8054906101000a900473ffffffffffffffffffffffffffffffffffffffff1673ffffffffffffffffffffffffffffffffffffffff163373ffffffffffffffffffffffffffffffffffffffff1614610f2d576040517f08c379a0000000000000000000000000000000000000000000000000000000008152600401610f249061283a565b60405180910390fd5b600a5f8373ffffffffffffffffffffffffffffffffffffffff1673ffffffffffffffffffffffffffffffffffffffff1681526020019081526020015f205f9054906101000a900460ff1615610fb7576040517f08c379a0000000000000000000000000000000000000000000000000000000008152600401610fae90612a79565b60405180910390fd5b5f60405180604001604052808381526020018473ffffffffffffffffffffffffffffffffffffffff168152509050600981908060018154018082558091505060019003905f5260205f2090600202015f909190919091505f820151815f0190816110219190612c91565b506020820151816001015f6101000a81548173ffffffffffffffffffffffffffffffffffffffff021916908373ffffffffffffffffffffffffffffffffffffffff16021790555050506001600a5f8573ffffffffffffffffffffffffffffffffffffffff1673ffffffffffffffffffffffffffffffffffffffff1681526020019081526020015f205f6101000a81548160ff021916908315150217905550505050565b6001602052815f5260405f20602052805f5260405f205f91509150505481565b600981815481106110f3575f80fd5b905f5260205f2090600202015f91509050805f01805461111290612ac4565b80601f016020809104026020016040519081016040528092919081815260200182805461113e90612ac4565b80156111895780601f1061116057610100808354040283529160200191611189565b820191905f5260205f20905b81548152906001019060200180831161116c57829003601f168201915b505050505090806001015f9054906101000a900473ffffffffffffffffffffffffffffffffffffffff16905082565b600781815481106111c7575f80fd5b905f5260205f2090600202015f91509050805f0180546111e690612ac4565b80601f016020809104026020016040519081016040528092919081815260200182805461121290612ac4565b801561125d5780601f106112345761010080835404028352916020019161125d565b820191905f5260205f20905b81548152906001019060200180831161124057829003601f168201915b505050505090806001015f9054906101000a900473ffffffffffffffffffffffffffffffffffffffff16905082565b600c602052805f5260405f205f915054906101000a900460ff1681565b6004602052815f5260405f20602052805f5260405f205f915091509054906101000a900460ff1681565b5f8054906101000a900473ffffffffffffffffffffffffffffffffffffffff1673ffffffffffffffffffffffffffffffffffffffff163373ffffffffffffffffffffffffffffffffffffffff1614611360576040517f08c379a00000000000000000000000000000000000000000000000000000000081526004016113579061283a565b60405180910390fd5b60085f8273ffffffffffffffffffffffffffffffffffffffff1673ffffffffffffffffffffffffffffffffffffffff1681526020019081526020015f205f9054906101000a900460ff166113e9576040517f08c379a00000000000000000000000000000000000000000000000000000000081526004016113e090612daa565b60405180910390fd5b5f5b600780549050811015611530578173ffffffffffffffffffffffffffffffffffffffff1660078281548110611423576114226128c0565b5b905f5260205f2090600202016001015f9054906101000a900473ffffffffffffffffffffffffffffffffffffffff1673ffffffffffffffffffffffffffffffffffffffff160361151d5760078181548110611481576114806128c0565b5b905f5260205f2090600202015f8082015f61149c91906122fa565b600182015f6101000a81549073ffffffffffffffffffffffffffffffffffffffff021916905550505f60085f8473ffffffffffffffffffffffffffffffffffffffff1673ffffffffffffffffffffffffffffffffffffffff1681526020019081526020015f205f6101000a81548160ff021916908315150217905550611530565b80806115289061291a565b9150506113eb565b5050565b3460015f8473ffffffffffffffffffffffffffffffffffffffff1673ffffffffffffffffffffffffffffffffffffffff1681526020019081526020015f205f8373ffffffffffffffffffffffffffffffffffffffff1673ffffffffffffffffffffffffffffffffffffffff1681526020019081526020015f205f8282546115bb91906129fc565b925050819055508073ffffffffffffffffffffffffffffffffffffffff168273ffffffffffffffffffffffffffffffffffffffff163373ffffffffffffffffffffffffffffffffffffffff167f3770108e97bde5ff5b5c39723a6eca55bc7f69ff1c634fd0d2f0392d39b0a8fc34604051611636919061264e565b60405180910390a45f151560045f8473ffffffffffffffffffffffffffffffffffffffff1673ffffffffffffffffffffffffffffffffffffffff1681526020019081526020015f205f8373ffffffffffffffffffffffffffffffffffffffff1673ffffffffffffffffffffffffffffffffffffffff1681526020019081526020015f205f9054906101000a900460ff1615150361175e57600160045f8473ffffffffffffffffffffffffffffffffffffffff1673ffffffffffffffffffffffffffffffffffffffff1681526020019081526020015f205f8373ffffffffffffffffffffffffffffffffffffffff1673ffffffffffffffffffffffffffffffffffffffff1681526020019081526020015f205f6101000a81548160ff0219169083151502179055505b5050565b6002602052815f5260405f20602052805f5260405f205f91509150505481565b6008602052805f5260405f205f915054906101000a900460ff1681565b600a602052805f5260405f205f915054906101000a900460ff1681565b5f8054906101000a900473ffffffffffffffffffffffffffffffffffffffff1681565b6006602052805f5260405f205f915054906101000a900460ff1681565b5f8054906101000a900473ffffffffffffffffffffffffffffffffffffffff1673ffffffffffffffffffffffffffffffffffffffff163373ffffffffffffffffffffffffffffffffffffffff1614611889576040517f08c379a00000000000000000000000000000000000000000000000000000000081526004016118809061283a565b60405180910390fd5b60065f8273ffffffffffffffffffffffffffffffffffffffff1673ffffffffffffffffffffffffffffffffffffffff1681526020019081526020015f205f9054906101000a900460ff16611912576040517f08c379a000000000000000000000000000000000000000000000000000000000815260040161190990612e12565b60405180910390fd5b5f5b600580549050811015611a59578173ffffffffffffffffffffffffffffffffffffffff166005828154811061194c5761194b6128c0565b5b905f5260205f2090600202016001015f9054906101000a900473ffffffffffffffffffffffffffffffffffffffff1673ffffffffffffffffffffffffffffffffffffffff1603611a4657600581815481106119aa576119a96128c0565b5b905f5260205f2090600202015f8082015f6119c591906122fa565b600182015f6101000a81549073ffffffffffffffffffffffffffffffffffffffff021916905550505f60065f8473ffffffffffffffffffffffffffffffffffffffff1673ffffffffffffffffffffffffffffffffffffffff1681526020019081526020015f205f6101000a81548160ff021916908315150217905550611a59565b8080611a519061291a565b915050611914565b5050565b5f8054906101000a900473ffffffffffffffffffffffffffffffffffffffff1673ffffffffffffffffffffffffffffffffffffffff163373ffffffffffffffffffffffffffffffffffffffff1614611aea576040517f08c379a0000000000000000000000000000000000000000000000000000000008152600401611ae19061283a565b60405180910390fd5b600a5f8373ffffffffffffffffffffffffffffffffffffffff1673ffffffffffffffffffffffffffffffffffffffff1681526020019081526020015f205f9054906101000a900460ff1615611b74576040517f08c379a0000000000000000000000000000000000000000000000000000000008152600401611b6b90612a79565b60405180910390fd5b5f60405180604001604052808381526020018473ffffffffffffffffffffffffffffffffffffffff168152509050600981908060018154018082558091505060019003905f5260205f2090600202015f909190919091505f820151815f019081611bde9190612c91565b506020820151816001015f6101000a81548173ffffffffffffffffffffffffffffffffffffffff021916908373ffffffffffffffffffffffffffffffffffffffff16021790555050506001600a5f8573ffffffffffffffffffffffffffffffffffffffff1673ffffffffffffffffffffffffffffffffffffffff1681526020019081526020015f205f6101000a81548160ff021916908315150217905550505050565b6003602052825f5260405f20602052815f5260405f208181548110611ca4575f80fd5b905f5260205f2090600302015f925092505050805f015f9054906101000a900473ffffffffffffffffffffffffffffffffffffffff1690806001015f9054906101000a900473ffffffffffffffffffffffffffffffffffffffff16908060020154905083565b600b8181548110611d19575f80fd5b905f5260205f2090600202015f91509050805f018054611d3890612ac4565b80601f0160208091040260200160405190810160405280929190818152602001828054611d6490612ac4565b8015611daf5780601f10611d8657610100808354040283529160200191611daf565b820191905f5260205f20905b815481529060010190602001808311611d9257829003601f168201915b505050505090806001015f9054906101000a900473ffffffffffffffffffffffffffffffffffffffff16905082565b5f8054906101000a900473ffffffffffffffffffffffffffffffffffffffff1673ffffffffffffffffffffffffffffffffffffffff163373ffffffffffffffffffffffffffffffffffffffff1614611e6b576040517f08c379a0000000000000000000000000000000000000000000000000000000008152600401611e629061283a565b60405180910390fd5b60065f8373ffffffffffffffffffffffffffffffffffffffff1673ffffffffffffffffffffffffffffffffffffffff1681526020019081526020015f205f9054906101000a900460ff1615611ef5576040517f08c379a0000000000000000000000000000000000000000000000000000000008152600401611eec90612e7a565b60405180910390fd5b5f60405180604001604052808381526020018473ffffffffffffffffffffffffffffffffffffffff168152509050600581908060018154018082558091505060019003905f5260205f2090600202015f909190919091505f820151815f019081611f5f9190612c91565b506020820151816001015f6101000a81548173ffffffffffffffffffffffffffffffffffffffff021916908373ffffffffffffffffffffffffffffffffffffffff1602179055505050600160065f8573ffffffffffffffffffffffffffffffffffffffff1673ffffffffffffffffffffffffffffffffffffffff1681526020019081526020015f205f6101000a81548160ff021916908315150217905550505050565b60058181548110612011575f80fd5b905f5260205f2090600202015f91509050805f01805461203090612ac4565b80601f016020809104026020016040519081016040528092919081815260200182805461205c90612ac4565b80156120a75780601f1061207e576101008083540402835291602001916120a7565b820191905f5260205f20905b81548152906001019060200180831161208a57829003601f168201915b505050505090806001015f9054906101000a900473ffffffffffffffffffffffffffffffffffffffff16905082565b5f8054906101000a900473ffffffffffffffffffffffffffffffffffffffff1673ffffffffffffffffffffffffffffffffffffffff163373ffffffffffffffffffffffffffffffffffffffff1614612163576040517f08c379a000000000000000000000000000000000000000000000000000000000815260040161215a9061283a565b60405180910390fd5b60085f8373ffffffffffffffffffffffffffffffffffffffff1673ffffffffffffffffffffffffffffffffffffffff1681526020019081526020015f205f9054906101000a900460ff16156121ed576040517f08c379a00000000000000000000000000000000000000000000000000000000081526004016121e490612ee2565b60405180910390fd5b5f60405180604001604052808381526020018473ffffffffffffffffffffffffffffffffffffffff168152509050600781908060018154018082558091505060019003905f5260205f2090600202015f909190919091505f820151815f0190816122579190612c91565b506020820151816001015f6101000a81548173ffffffffffffffffffffffffffffffffffffffff021916908373ffffffffffffffffffffffffffffffffffffffff1602179055505050600160085f8573ffffffffffffffffffffffffffffffffffffffff1673ffffffffffffffffffffffffffffffffffffffff1681526020019081526020015f205f6101000a81548160ff021916908315150217905550505050565b50805461230690612ac4565b5f825580601f106123175750612334565b601f0160209004905f5260205f20908101906123339190612337565b5b50565b5b8082111561234e575f815f905550600101612338565b5090565b5f604051905090565b5f80fd5b5f80fd5b5f73ffffffffffffffffffffffffffffffffffffffff82169050919050565b5f61238c82612363565b9050919050565b61239c81612382565b81146123a6575f80fd5b50565b5f813590506123b781612393565b92915050565b5f602082840312156123d2576123d161235b565b5b5f6123df848285016123a9565b91505092915050565b5f819050919050565b6123fa816123e8565b8114612404575f80fd5b50565b5f81359050612415816123f1565b92915050565b5f805f606084860312156124325761243161235b565b5b5f61243f868287016123a9565b9350506020612450868287016123a9565b925050604061246186828701612407565b9150509250925092565b5f80fd5b5f80fd5b5f601f19601f8301169050919050565b7f4e487b71000000000000000000000000000000000000000000000000000000005f52604160045260245ffd5b6124b982612473565b810181811067ffffffffffffffff821117156124d8576124d7612483565b5b80604052505050565b5f6124ea612352565b90506124f682826124b0565b919050565b5f67ffffffffffffffff82111561251557612514612483565b5b61251e82612473565b9050602081019050919050565b828183375f83830152505050565b5f61254b612546846124fb565b6124e1565b9050828152602081018484840111156125675761256661246f565b5b61257284828561252b565b509392505050565b5f82601f83011261258e5761258d61246b565b5b813561259e848260208601612539565b91505092915050565b5f80604083850312156125bd576125bc61235b565b5b5f6125ca858286016123a9565b925050602083013567ffffffffffffffff8111156125eb576125ea61235f565b5b6125f78582860161257a565b9150509250929050565b5f80604083850312156126175761261661235b565b5b5f612624858286016123a9565b9250506020612635858286016123a9565b9150509250929050565b612648816123e8565b82525050565b5f6020820190506126615f83018461263f565b92915050565b5f6020828403121561267c5761267b61235b565b5b5f61268984828501612407565b91505092915050565b5f81519050919050565b5f82825260208201905092915050565b5f5b838110156126c95780820151818401526020810190506126ae565b5f8484015250505050565b5f6126de82612692565b6126e8818561269c565b93506126f88185602086016126ac565b61270181612473565b840191505092915050565b61271581612382565b82525050565b5f6040820190508181035f83015261273381856126d4565b9050612742602083018461270c565b9392505050565b5f8115159050919050565b61275d81612749565b82525050565b5f6020820190506127765f830184612754565b92915050565b5f60208201905061278f5f83018461270c565b92915050565b5f6060820190506127a85f83018661270c565b6127b5602083018561270c565b6127c2604083018461263f565b949350505050565b7f4f6e6c7920746865206f776e65722063616e2063616c6c20746869732066756e5f8201527f6374696f6e2e0000000000000000000000000000000000000000000000000000602082015250565b5f61282460268361269c565b915061282f826127ca565b604082019050919050565b5f6020820190508181035f83015261285181612818565b9050919050565b7f436f6e74726163746f7220646f6573206e6f74206578697374732e00000000005f82015250565b5f61288c601b8361269c565b915061289782612858565b602082019050919050565b5f6020820190508181035f8301526128b981612880565b9050919050565b7f4e487b71000000000000000000000000000000000000000000000000000000005f52603260045260245ffd5b7f4e487b71000000000000000000000000000000000000000000000000000000005f52601160045260245ffd5b5f612924826123e8565b91507fffffffffffffffffffffffffffffffffffffffffffffffffffffffffffffffff8203612956576129556128ed565b5b600182019050919050565b7f496e73756666696369656e7420616c6c6f63617465642066756e64732e0000005f82015250565b5f612995601d8361269c565b91506129a082612961565b602082019050919050565b5f6020820190508181035f8301526129c281612989565b9050919050565b5f6129d3826123e8565b91506129de836123e8565b92508282039050818111156129f6576129f56128ed565b5b92915050565b5f612a06826123e8565b9150612a11836123e8565b9250828201905080821115612a2957612a286128ed565b5b92915050565b7f436f6e74726163746f7220616c7265616479206578697374732e0000000000005f82015250565b5f612a63601a8361269c565b9150612a6e82612a2f565b602082019050919050565b5f6020820190508181035f830152612a9081612a57565b9050919050565b7f4e487b71000000000000000000000000000000000000000000000000000000005f52602260045260245ffd5b5f6002820490506001821680612adb57607f821691505b602082108103612aee57612aed612a97565b5b50919050565b5f819050815f5260205f209050919050565b5f6020601f8301049050919050565b5f82821b905092915050565b5f60088302612b507fffffffffffffffffffffffffffffffffffffffffffffffffffffffffffffffff82612b15565b612b5a8683612b15565b95508019841693508086168417925050509392505050565b5f819050919050565b5f612b95612b90612b8b846123e8565b612b72565b6123e8565b9050919050565b5f819050919050565b612bae83612b7b565b612bc2612bba82612b9c565b848454612b21565b825550505050565b5f90565b612bd6612bca565b612be1818484612ba5565b505050565b5b81811015612c0457612bf95f82612bce565b600181019050612be7565b5050565b601f821115612c4957612c1a81612af4565b612c2384612b06565b81016020851015612c32578190505b612c46612c3e85612b06565b830182612be6565b50505b505050565b5f82821c905092915050565b5f612c695f1984600802612c4e565b1980831691505092915050565b5f612c818383612c5a565b9150826002028217905092915050565b612c9a82612692565b67ffffffffffffffff811115612cb357612cb2612483565b5b612cbd8254612ac4565b612cc8828285612c08565b5f60209050601f831160018114612cf9575f8415612ce7578287015190505b612cf18582612c76565b865550612d58565b601f198416612d0786612af4565b5f5b82811015612d2e57848901518255600182019150602085019450602081019050612d09565b86831015612d4b5784890151612d47601f891682612c5a565b8355505b6001600288020188555050505b505050505050565b7f536563746f7220646f6573206e6f7420657869737400000000000000000000005f82015250565b5f612d9460158361269c565b9150612d9f82612d60565b602082019050919050565b5f6020820190508181035f830152612dc181612d88565b9050919050565b7f446973747269637420646f6573206e6f742065786973740000000000000000005f82015250565b5f612dfc60178361269c565b9150612e0782612dc8565b602082019050919050565b5f6020820190508181035f830152612e2981612df0565b9050919050565b7f446973747269637420616c7265616479206578697374732e00000000000000005f82015250565b5f612e6460188361269c565b9150612e6f82612e30565b602082019050919050565b5f6020820190508181035f830152612e9181612e58565b9050919050565b7f536563746f7220616c7265616479206578697374732e000000000000000000005f82015250565b5f612ecc60168361269c565b9150612ed782612e98565b602082019050919050565b5f6020820190508181035f830152612ef981612ec0565b905091905056fea2646970667358221220be8f5429868fda3e6c429446a24a02f23d2ad97583608a02dec79c62e438b3f164736f6c63430008140033",
  "immutableReferences": {},
  "source": "// SPDX-License-Identifier: MIT\npragma solidity ^0.8.0;\n\ncontract FundMonitor {\n    // global variable & modifier\n    address public owner;\n\n    modifier onlyOwner() {\n        require(msg.sender == owner, \"Only the owner can call this function.\");\n        _;\n    }\n\n    // Fund monitor Code\n    struct Transfer {\n        address fromDistrict;\n        address toSector;\n        uint256 amount;\n    }\n\n    mapping(address => mapping(address => uint256)) public allocatedFunds;\n    mapping(address => mapping(address => uint256)) public transferredFunds;\n    mapping(address => mapping(address => Transfer[])) public transferHistory;\n\n    mapping(address => mapping(address => bool)) public isDistrictSector; // to check if the sector belongs to that district\n\n    event FundsAllocated(\n        address indexed sender,\n        address indexed district,\n        address indexed sector,\n        uint256 amount\n    );\n    event FundsTransferred(\n        address indexed sender,\n        address indexed fromDistrict,\n        address indexed toSector,\n        uint256 amount\n    );\n\n    constructor() {\n        owner = msg.sender;\n    }\n\n    function allocateFunds(address fromAddress, address toAddress)\n        external\n        payable\n    {\n        allocatedFunds[fromAddress][toAddress] += msg.value;\n        emit FundsAllocated(msg.sender, fromAddress, toAddress, msg.value);\n\n        if (isDistrictSector[fromAddress][toAddress] == false) {\n            isDistrictSector[fromAddress][toAddress] = true;\n        }\n    }\n\n    function transferFunds(\n        address fromAddress,\n        address toAddress,\n        uint256 amount\n    ) external {\n        require(\n            allocatedFunds[fromAddress][toAddress] >= amount,\n            \"Insufficient allocated funds.\"\n        );\n        allocatedFunds[fromAddress][toAddress] -= amount;\n        transferredFunds[fromAddress][toAddress] += amount;\n        transferHistory[fromAddress][toAddress].push(\n            Transfer(fromAddress, toAddress, amount)\n        );\n        emit FundsTransferred(msg.sender, fromAddress, toAddress, amount);\n        payable(toAddress).transfer(amount);\n    }\n\n    // -------------FUNDMONITOR ends.-------------\n    // Code for the rest starts now.\n    struct District {\n        string nameOfDistrict;\n        address districtAddress;\n    }\n\n    District[] public districts;\n    mapping(address => bool) public isDistrict;\n\n    function addDistrict(address _districtAddress, string memory _districtName)\n        public\n        onlyOwner\n    {\n        require(!isDistrict[_districtAddress], \"District already exists.\");\n        District memory newDistrict = District(_districtName, _districtAddress);\n        districts.push(newDistrict);\n        isDistrict[_districtAddress] = true;\n    }\n\n    function removeDistrict(address _districtAddress) public onlyOwner {\n        require(isDistrict[_districtAddress], \"District does not exist\");\n\n        for (uint256 i = 0; i < districts.length; i++) {\n            if (districts[i].districtAddress == _districtAddress) {\n                delete districts[i];\n                isDistrict[_districtAddress] = false;\n                break;\n            }\n        }\n    }\n\n    // ----------------DISTRICT ENDS.----------------\n    // code for SECTORS\n    struct Sectors {\n        string nameOfSectors;\n        address sectorAddress;\n    }\n\n    Sectors[] public sectors;\n    mapping(address => bool) public isSector;\n\n    function addSector(address _sectorAddress, string memory _sectorName)\n        public\n        onlyOwner\n    {\n        require(!isSector[_sectorAddress], \"Sector already exists.\");\n        Sectors memory newSector = Sectors(_sectorName, _sectorAddress);\n        sectors.push(newSector);\n        isSector[_sectorAddress] = true;\n    }\n\n    function removeSector(address _sectorAddress) public onlyOwner {\n        require(isSector[_sectorAddress], \"Sector does not exist\");\n\n        for (uint256 i = 0; i < sectors.length; i++) {\n            if (sectors[i].sectorAddress == _sectorAddress) {\n                delete sectors[i];\n                isSector[_sectorAddress] = false;\n                break;\n            }\n        }\n    }\n\n    // ----------------SECTOR ENDS.----------------\n    // code for CONTRACTORS\n    struct Contractor {\n        string nameOfContractor;\n        address contractorAddress;\n    }\n\n    Contractor[] public contractors;\n    mapping(address => bool) public isContractor;\n\n    function addContractor(\n        address _contractorAddress,\n        string memory _contractorName\n    ) public onlyOwner {\n        require(\n            !isContractor[_contractorAddress],\n            \"Contractor already exists.\"\n        );\n        Contractor memory newcontractor = Contractor(\n            _contractorName,\n            _contractorAddress\n        );\n\n        contractors.push(newcontractor);\n        isContractor[_contractorAddress] = true;\n    }\n\n    function removeContractor(address _contractorAddress) public onlyOwner {\n        require(\n            isContractor[_contractorAddress],\n            \"Contractor does not exists.\"\n        );\n\n        for (uint256 i = 0; i < contractors.length; i++) {\n            if (contractors[i].contractorAddress == _contractorAddress) {\n                delete contractors[i];\n                isContractor[_contractorAddress] = false;\n                break;\n            }\n        }\n    }\n    // ----------------COTRACTOR ENDS.----------------\n    // code for SUPPLIERS\n    struct Supplier {\n        string nameOfContractor;\n        address contractorAddress;\n    }\n\n    Supplier[] public suppliers;\n    mapping(address => bool) public isSupplier;\n\n    function addSupplier(\n        address _contractorAddress,\n        string memory _contractorName\n    ) public onlyOwner {\n        require(\n            !isContractor[_contractorAddress],\n            \"Contractor already exists.\"\n        );\n        Contractor memory newcontractor = Contractor(\n            _contractorName,\n            _contractorAddress\n        );\n\n        contractors.push(newcontractor);\n        isContractor[_contractorAddress] = true;\n    }\n\n    function removeSupplier(address _contractorAddress) public onlyOwner {\n        require(\n            isContractor[_contractorAddress],\n            \"Contractor does not exists.\"\n        );\n\n        for (uint256 i = 0; i < contractors.length; i++) {\n            if (contractors[i].contractorAddress == _contractorAddress) {\n                delete contractors[i];\n                isContractor[_contractorAddress] = false;\n                break;\n            }\n        }\n    }\n    // ----------------SUPPLIER ENDS.----------------\n}\n",
  "sourcePath": "/home/fatguy/Desktop/codes/web3/TaxRevenueTransparency/contracts/FundMonitor.sol",
  "compiler": {
    "name": "solc",
    "version": "0.8.20+commit.a1b79de6.Emscripten.clang"
  },
  "schemaVersion": "3.4.14",
  "updatedAt": "2023-07-20T10:54:01.818Z",
  "devdoc": {
    "kind": "dev",
    "methods": {},
    "version": 1
  },
  "userdoc": {
    "kind": "user",
    "methods": {},
    "version": 1
  }
}