{
  "contractName": "CentralGovernment",
  "abi": [
    {
      "inputs": [],
      "stateMutability": "nonpayable",
      "type": "constructor"
    },
    {
      "inputs": [
        {
          "internalType": "address",
          "name": "",
          "type": "address"
        }
      ],
      "name": "balances",
      "outputs": [
        {
          "internalType": "uint256",
          "name": "",
          "type": "uint256"
        }
      ],
      "stateMutability": "view",
      "type": "function"
    },
    {
      "inputs": [],
      "name": "owner",
      "outputs": [
        {
          "internalType": "address",
          "name": "",
          "type": "address"
        }
      ],
      "stateMutability": "view",
      "type": "function"
    },
    {
      "inputs": [],
      "name": "totalFunds",
      "outputs": [
        {
          "internalType": "uint256",
          "name": "",
          "type": "uint256"
        }
      ],
      "stateMutability": "view",
      "type": "function"
    },
    {
      "inputs": [],
      "name": "depositFunds",
      "outputs": [],
      "stateMutability": "payable",
      "type": "function"
    },
    {
      "inputs": [
        {
          "internalType": "uint256",
          "name": "amount",
          "type": "uint256"
        }
      ],
      "name": "withdrawFunds",
      "outputs": [],
      "stateMutability": "nonpayable",
      "type": "function"
    },
    {
      "inputs": [
        {
          "internalType": "address",
          "name": "account",
          "type": "address"
        }
      ],
      "name": "getBalance",
      "outputs": [
        {
          "internalType": "uint256",
          "name": "",
          "type": "uint256"
        }
      ],
      "stateMutability": "view",
      "type": "function"
    },
    {
      "inputs": [],
      "name": "getTotalFunds",
      "outputs": [
        {
          "internalType": "uint256",
          "name": "",
          "type": "uint256"
        }
      ],
      "stateMutability": "view",
      "type": "function"
    },
    {
      "inputs": [
        {
          "internalType": "address",
          "name": "newOwner",
          "type": "address"
        }
      ],
      "name": "transferOwnership",
      "outputs": [],
      "stateMutability": "nonpayable",
      "type": "function"
    }
  ],
  "bytecode": "0x608060405234801561000f575f80fd5b50335f806101000a81548173ffffffffffffffffffffffffffffffffffffffff021916908373ffffffffffffffffffffffffffffffffffffffff1602179055506107cf8061005c5f395ff3fe60806040526004361061007a575f3560e01c8063e2c41dbc1161004d578063e2c41dbc14610136578063eb8bbd2814610140578063f2fde38b1461016a578063f8b2cb4f146101925761007a565b8063155dd5ee1461007e57806327e235e3146100a65780638da5cb5b146100e2578063968ed6001461010c575b5f80fd5b348015610089575f80fd5b506100a4600480360381019061009f9190610500565b6101ce565b005b3480156100b1575f80fd5b506100cc60048036038101906100c79190610585565b610300565b6040516100d991906105bf565b60405180910390f35b3480156100ed575f80fd5b506100f6610315565b60405161010391906105e7565b60405180910390f35b348015610117575f80fd5b50610120610338565b60405161012d91906105bf565b60405180910390f35b61013e61033e565b005b34801561014b575f80fd5b506101546103ab565b60405161016191906105bf565b60405180910390f35b348015610175575f80fd5b50610190600480360381019061018b9190610585565b6103b4565b005b34801561019d575f80fd5b506101b860048036038101906101b39190610585565b610483565b6040516101c591906105bf565b60405180910390f35b8060025f3373ffffffffffffffffffffffffffffffffffffffff1673ffffffffffffffffffffffffffffffffffffffff1681526020019081526020015f2054101561024e576040517f08c379a00000000000000000000000000000000000000000000000000000000081526004016102459061065a565b60405180910390fd5b8060025f3373ffffffffffffffffffffffffffffffffffffffff1673ffffffffffffffffffffffffffffffffffffffff1681526020019081526020015f205f82825461029a91906106a5565b925050819055508060015f8282546102b291906106a5565b925050819055503373ffffffffffffffffffffffffffffffffffffffff166108fc8290811502906040515f60405180830381858888f193505050501580156102fc573d5f803e3d5ffd5b5050565b6002602052805f5260405f205f915090505481565b5f8054906101000a900473ffffffffffffffffffffffffffffffffffffffff1681565b60015481565b3460025f3373ffffffffffffffffffffffffffffffffffffffff1673ffffffffffffffffffffffffffffffffffffffff1681526020019081526020015f205f82825461038a91906106d8565b925050819055503460015f8282546103a291906106d8565b92505081905550565b5f600154905090565b5f8054906101000a900473ffffffffffffffffffffffffffffffffffffffff1673ffffffffffffffffffffffffffffffffffffffff163373ffffffffffffffffffffffffffffffffffffffff1614610441576040517f08c379a00000000000000000000000000000000000000000000000000000000081526004016104389061077b565b60405180910390fd5b805f806101000a81548173ffffffffffffffffffffffffffffffffffffffff021916908373ffffffffffffffffffffffffffffffffffffffff16021790555050565b5f60025f8373ffffffffffffffffffffffffffffffffffffffff1673ffffffffffffffffffffffffffffffffffffffff1681526020019081526020015f20549050919050565b5f80fd5b5f819050919050565b6104df816104cd565b81146104e9575f80fd5b50565b5f813590506104fa816104d6565b92915050565b5f60208284031215610515576105146104c9565b5b5f610522848285016104ec565b91505092915050565b5f73ffffffffffffffffffffffffffffffffffffffff82169050919050565b5f6105548261052b565b9050919050565b6105648161054a565b811461056e575f80fd5b50565b5f8135905061057f8161055b565b92915050565b5f6020828403121561059a576105996104c9565b5b5f6105a784828501610571565b91505092915050565b6105b9816104cd565b82525050565b5f6020820190506105d25f8301846105b0565b92915050565b6105e18161054a565b82525050565b5f6020820190506105fa5f8301846105d8565b92915050565b5f82825260208201905092915050565b7f496e73756666696369656e742062616c616e63652e00000000000000000000005f82015250565b5f610644601583610600565b915061064f82610610565b602082019050919050565b5f6020820190508181035f83015261067181610638565b9050919050565b7f4e487b71000000000000000000000000000000000000000000000000000000005f52601160045260245ffd5b5f6106af826104cd565b91506106ba836104cd565b92508282039050818111156106d2576106d1610678565b5b92915050565b5f6106e2826104cd565b91506106ed836104cd565b925082820190508082111561070557610704610678565b5b92915050565b7f4f6e6c7920746865206f776e65722063616e2063616c6c20746869732066756e5f8201527f6374696f6e2e0000000000000000000000000000000000000000000000000000602082015250565b5f610765602683610600565b91506107708261070b565b604082019050919050565b5f6020820190508181035f83015261079281610759565b905091905056fea2646970667358221220adaf2f51c2213731a56cb11ead965af01157ca46629035b899753e2c366be01764736f6c63430008140033",
  "immutableReferences": {},
  "source": "// SPDX-License-Identifier: MIT\npragma solidity ^0.8.0;\n\ncontract CentralGovernment {\n    address public owner;\n    uint256 public totalFunds;\n    mapping(address => uint256) public balances;\n\n    modifier onlyOwner() {\n        require(msg.sender == owner, \"Only the owner can call this function.\");\n        _;\n    }\n\n    constructor() {\n        owner = msg.sender;\n    }\n\n    function depositFunds() public payable {\n        balances[msg.sender] += msg.value;\n        totalFunds += msg.value;\n    }\n\n    function withdrawFunds(uint256 amount) public {\n        require(balances[msg.sender] >= amount, \"Insufficient balance.\");\n\n        balances[msg.sender] -= amount;\n        totalFunds -= amount;\n        payable(msg.sender).transfer(amount);\n    }\n\n    function getBalance(address account) public view returns (uint256) {\n        return balances[account];\n    }\n\n    function getTotalFunds() public view returns (uint256) {\n        return totalFunds;\n    }\n\n    function transferOwnership(address newOwner) public onlyOwner {\n        owner = newOwner;\n    }\n}\n",
  "sourcePath": "/home/fatguy/Desktop/codes/web3/TaxRevenueTransparency/contracts/centralGov.sol",
  "compiler": {
    "name": "solc",
    "version": "0.8.20+commit.a1b79de6.Emscripten.clang"
  },
  "schemaVersion": "3.4.14",
  "updatedAt": "2023-07-16T05:45:01.532Z",
  "devdoc": {
    "kind": "dev",
    "methods": {},
    "version": 1
  },
  "userdoc": {
    "kind": "user",
    "methods": {},
    "version": 1
  }
}