{
  "contractName": "FundMonitor",
  "abi": [
    {
      "inputs": [
        {
          "internalType": "address",
          "name": "_organization1",
          "type": "address"
        },
        {
          "internalType": "address",
          "name": "_organization2",
          "type": "address"
        }
      ],
      "stateMutability": "nonpayable",
      "type": "constructor"
    },
    {
      "anonymous": false,
      "inputs": [
        {
          "indexed": true,
          "internalType": "address",
          "name": "sender",
          "type": "address"
        },
        {
          "indexed": false,
          "internalType": "uint256",
          "name": "amount",
          "type": "uint256"
        }
      ],
      "name": "FundsAllocated",
      "type": "event"
    },
    {
      "anonymous": false,
      "inputs": [
        {
          "indexed": true,
          "internalType": "address",
          "name": "sender",
          "type": "address"
        },
        {
          "indexed": false,
          "internalType": "uint256",
          "name": "amount",
          "type": "uint256"
        }
      ],
      "name": "FundsTransferred",
      "type": "event"
    },
    {
      "inputs": [],
      "name": "allocatedFund",
      "outputs": [
        {
          "internalType": "uint256",
          "name": "",
          "type": "uint256"
        }
      ],
      "stateMutability": "view",
      "type": "function",
      "constant": true
    },
    {
      "inputs": [],
      "name": "organization1",
      "outputs": [
        {
          "internalType": "address",
          "name": "",
          "type": "address"
        }
      ],
      "stateMutability": "view",
      "type": "function",
      "constant": true
    },
    {
      "inputs": [],
      "name": "organization2",
      "outputs": [
        {
          "internalType": "address",
          "name": "",
          "type": "address"
        }
      ],
      "stateMutability": "view",
      "type": "function",
      "constant": true
    },
    {
      "inputs": [],
      "name": "transferredFund",
      "outputs": [
        {
          "internalType": "uint256",
          "name": "",
          "type": "uint256"
        }
      ],
      "stateMutability": "view",
      "type": "function",
      "constant": true
    },
    {
      "inputs": [],
      "name": "allocateFunds",
      "outputs": [],
      "stateMutability": "payable",
      "type": "function",
      "payable": true
    },
    {
      "inputs": [
        {
          "internalType": "uint256",
          "name": "amount",
          "type": "uint256"
        }
      ],
      "name": "transferFunds",
      "outputs": [],
      "stateMutability": "nonpayable",
      "type": "function"
    }
  ],
  "bytecode": "0x608060405234801561000f575f80fd5b506040516108d23803806108d283398181016040528101906100319190610115565b815f806101000a81548173ffffffffffffffffffffffffffffffffffffffff021916908373ffffffffffffffffffffffffffffffffffffffff1602179055508060015f6101000a81548173ffffffffffffffffffffffffffffffffffffffff021916908373ffffffffffffffffffffffffffffffffffffffff1602179055505050610153565b5f80fd5b5f73ffffffffffffffffffffffffffffffffffffffff82169050919050565b5f6100e4826100bb565b9050919050565b6100f4816100da565b81146100fe575f80fd5b50565b5f8151905061010f816100eb565b92915050565b5f806040838503121561012b5761012a6100b7565b5b5f61013885828601610101565b925050602061014985828601610101565b9150509250929050565b610772806101605f395ff3fe608060405260043610610054575f3560e01c806307ca0e9a14610058578063133ae30b1461008257806321ef9b94146100aa578063dba1a5f9146100d4578063df9f1f63146100de578063ef5b478d14610108575b5f80fd5b348015610063575f80fd5b5061006c610132565b604051610079919061044b565b60405180910390f35b34801561008d575f80fd5b506100a860048036038101906100a39190610492565b610138565b005b3480156100b5575f80fd5b506100be6102f0565b6040516100cb91906104fc565b60405180910390f35b6100dc610315565b005b3480156100e9575f80fd5b506100f261040a565b6040516100ff91906104fc565b60405180910390f35b348015610113575f80fd5b5061011c61042d565b604051610129919061044b565b60405180910390f35b60035481565b5f8054906101000a900473ffffffffffffffffffffffffffffffffffffffff1673ffffffffffffffffffffffffffffffffffffffff163373ffffffffffffffffffffffffffffffffffffffff16146101c5576040517f08c379a00000000000000000000000000000000000000000000000000000000081526004016101bc90610595565b60405180910390fd5b80600254101561020a576040517f08c379a0000000000000000000000000000000000000000000000000000000008152600401610201906105fd565b60405180910390fd5b8060025f82825461021b9190610648565b925050819055508060035f828254610233919061067b565b925050819055503373ffffffffffffffffffffffffffffffffffffffff167f8c9a4f13b67cb64d7c6aa1ae0c9bf07694af521a28b93e7060020810ab4bc59f82604051610280919061044b565b60405180910390a260015f9054906101000a900473ffffffffffffffffffffffffffffffffffffffff1673ffffffffffffffffffffffffffffffffffffffff166108fc8290811502906040515f60405180830381858888f193505050501580156102ec573d5f803e3d5ffd5b5050565b60015f9054906101000a900473ffffffffffffffffffffffffffffffffffffffff1681565b5f8054906101000a900473ffffffffffffffffffffffffffffffffffffffff1673ffffffffffffffffffffffffffffffffffffffff163373ffffffffffffffffffffffffffffffffffffffff16146103a2576040517f08c379a00000000000000000000000000000000000000000000000000000000081526004016103999061071e565b60405180910390fd5b3460025f8282546103b3919061067b565b925050819055503373ffffffffffffffffffffffffffffffffffffffff167f870f86672db2c7b197484fa0218e97fe38eb7c89fd39ed2c4c910734c66182f834604051610400919061044b565b60405180910390a2565b5f8054906101000a900473ffffffffffffffffffffffffffffffffffffffff1681565b60025481565b5f819050919050565b61044581610433565b82525050565b5f60208201905061045e5f83018461043c565b92915050565b5f80fd5b61047181610433565b811461047b575f80fd5b50565b5f8135905061048c81610468565b92915050565b5f602082840312156104a7576104a6610464565b5b5f6104b48482850161047e565b91505092915050565b5f73ffffffffffffffffffffffffffffffffffffffff82169050919050565b5f6104e6826104bd565b9050919050565b6104f6816104dc565b82525050565b5f60208201905061050f5f8301846104ed565b92915050565b5f82825260208201905092915050565b7f4f6e6c79206f7267616e697a6174696f6e312063616e207472616e73666572205f8201527f66756e64732e0000000000000000000000000000000000000000000000000000602082015250565b5f61057f602683610515565b915061058a82610525565b604082019050919050565b5f6020820190508181035f8301526105ac81610573565b9050919050565b7f496e73756666696369656e7420616c6c6f63617465642066756e64732e0000005f82015250565b5f6105e7601d83610515565b91506105f2826105b3565b602082019050919050565b5f6020820190508181035f830152610614816105db565b9050919050565b7f4e487b71000000000000000000000000000000000000000000000000000000005f52601160045260245ffd5b5f61065282610433565b915061065d83610433565b92508282039050818111156106755761067461061b565b5b92915050565b5f61068582610433565b915061069083610433565b92508282019050808211156106a8576106a761061b565b5b92915050565b7f4f6e6c79206f7267616e697a6174696f6e312063616e20616c6c6f63617465205f8201527f66756e64732e0000000000000000000000000000000000000000000000000000602082015250565b5f610708602683610515565b9150610713826106ae565b604082019050919050565b5f6020820190508181035f830152610735816106fc565b905091905056fea2646970667358221220a7531bd1942abc5be88652b2795aa8525c31b871ec6456a2e3b714257a45c2e764736f6c63430008140033",
  "immutableReferences": {},
  "source": "// SPDX-License-Identifier: MIT\npragma solidity ^0.8.0;\n\ncontract FundMonitor {\n    address public organization1;\n    address public organization2;\n    uint256 public allocatedFund;\n    uint256 public transferredFund;\n\n    event FundsAllocated(address indexed sender, uint256 amount);\n    event FundsTransferred(address indexed sender, uint256 amount);\n\n    constructor(address _organization1, address _organization2) {\n        organization1 = _organization1;\n        organization2 = _organization2;\n    }\n\n    function allocateFunds() external payable {\n        require(msg.sender == organization1, \"Only organization1 can allocate funds.\");\n        allocatedFund += msg.value;\n        emit FundsAllocated(msg.sender, msg.value);\n    }\n\n    function transferFunds(uint256 amount) external {\n        require(msg.sender == organization1, \"Only organization1 can transfer funds.\");\n        require(allocatedFund >= amount, \"Insufficient allocated funds.\");\n        allocatedFund -= amount;\n        transferredFund += amount;\n        emit FundsTransferred(msg.sender, amount);\n        payable(organization2).transfer(amount);\n    }\n}\n",
  "sourcePath": "/home/fatguy/Desktop/codes/web3/TaxRevenueTransparency/contracts/FundMonitor.sol",
  "compiler": {
    "name": "solc",
    "version": "0.8.20+commit.a1b79de6.Emscripten.clang"
  },
  "schemaVersion": "3.4.14",
  "updatedAt": "2023-07-17T14:37:02.099Z",
  "networkType": "ethereum",
  "devdoc": {
    "kind": "dev",
    "methods": {},
    "version": 1
  },
  "userdoc": {
    "kind": "user",
    "methods": {},
    "version": 1
  }
}