{
  "contractName": "Task",
  "abi": [
    {
      "inputs": [
        {
          "internalType": "address[]",
          "name": "sector",
          "type": "address[]"
        },
        {
          "internalType": "address[]",
          "name": "contractor",
          "type": "address[]"
        }
      ],
      "stateMutability": "nonpayable",
      "type": "constructor"
    },
    {
      "inputs": [
        {
          "internalType": "uint256",
          "name": "",
          "type": "uint256"
        }
      ],
      "name": "Applications",
      "outputs": [
        {
          "internalType": "address",
          "name": "nameOfContractor",
          "type": "address"
        },
        {
          "internalType": "uint256",
          "name": "total",
          "type": "uint256"
        }
      ],
      "stateMutability": "view",
      "type": "function"
    },
    {
      "inputs": [],
      "name": "acceptApp",
      "outputs": [
        {
          "internalType": "address",
          "name": "nameOfContractor",
          "type": "address"
        },
        {
          "internalType": "uint256",
          "name": "total",
          "type": "uint256"
        }
      ],
      "stateMutability": "view",
      "type": "function"
    },
    {
      "inputs": [
        {
          "internalType": "uint256",
          "name": "",
          "type": "uint256"
        }
      ],
      "name": "contractors",
      "outputs": [
        {
          "internalType": "address",
          "name": "",
          "type": "address"
        }
      ],
      "stateMutability": "view",
      "type": "function"
    },
    {
      "inputs": [
        {
          "internalType": "uint256",
          "name": "",
          "type": "uint256"
        }
      ],
      "name": "sectors",
      "outputs": [
        {
          "internalType": "address",
          "name": "",
          "type": "address"
        }
      ],
      "stateMutability": "view",
      "type": "function"
    },
    {
      "inputs": [
        {
          "internalType": "string[]",
          "name": "wrk",
          "type": "string[]"
        },
        {
          "internalType": "uint256[]",
          "name": "amt",
          "type": "uint256[]"
        },
        {
          "internalType": "uint256",
          "name": "tot",
          "type": "uint256"
        }
      ],
      "name": "f_apply",
      "outputs": [],
      "stateMutability": "nonpayable",
      "type": "function"
    },
    {
      "inputs": [
        {
          "internalType": "uint256",
          "name": "indexOfApplication",
          "type": "uint256"
        }
      ],
      "name": "acceptApplication",
      "outputs": [
        {
          "components": [
            {
              "internalType": "address",
              "name": "nameOfContractor",
              "type": "address"
            },
            {
              "internalType": "string[]",
              "name": "works",
              "type": "string[]"
            },
            {
              "internalType": "uint256[]",
              "name": "amounts",
              "type": "uint256[]"
            },
            {
              "internalType": "uint256",
              "name": "total",
              "type": "uint256"
            }
          ],
          "internalType": "struct Application",
          "name": "",
          "type": "tuple"
        }
      ],
      "stateMutability": "nonpayable",
      "type": "function"
    }
  ],
  "bytecode": "0x608060405234801562000010575f80fd5b5060405162001843380380620018438339818101604052810190620000369190620003dd565b815f90805190602001906200004d92919062000156565b5080600190805190602001906200006692919062000156565b505f805b5f8054905081101562000108573373ffffffffffffffffffffffffffffffffffffffff165f8281548110620000a457620000a362000460565b5b905f5260205f20015f9054906101000a900473ffffffffffffffffffffffffffffffffffffffff1673ffffffffffffffffffffffffffffffffffffffff1603620000f2576001915062000108565b8080620000ff90620004c3565b9150506200006a565b5080156200014d576040517f08c379a000000000000000000000000000000000000000000000000000000000815260040162000144906200056d565b60405180910390fd5b5050506200058d565b828054828255905f5260205f20908101928215620001cf579160200282015b82811115620001ce578251825f6101000a81548173ffffffffffffffffffffffffffffffffffffffff021916908373ffffffffffffffffffffffffffffffffffffffff1602179055509160200191906001019062000175565b5b509050620001de9190620001e2565b5090565b5b80821115620001fb575f815f905550600101620001e3565b5090565b5f604051905090565b5f80fd5b5f80fd5b5f80fd5b5f601f19601f8301169050919050565b7f4e487b71000000000000000000000000000000000000000000000000000000005f52604160045260245ffd5b6200025c8262000214565b810181811067ffffffffffffffff821117156200027e576200027d62000224565b5b80604052505050565b5f62000292620001ff565b9050620002a0828262000251565b919050565b5f67ffffffffffffffff821115620002c257620002c162000224565b5b602082029050602081019050919050565b5f80fd5b5f73ffffffffffffffffffffffffffffffffffffffff82169050919050565b5f6200030282620002d7565b9050919050565b6200031481620002f6565b81146200031f575f80fd5b50565b5f81519050620003328162000309565b92915050565b5f6200034e6200034884620002a5565b62000287565b90508083825260208201905060208402830185811115620003745762000373620002d3565b5b835b81811015620003a157806200038c888262000322565b84526020840193505060208101905062000376565b5050509392505050565b5f82601f830112620003c257620003c162000210565b5b8151620003d484826020860162000338565b91505092915050565b5f8060408385031215620003f657620003f562000208565b5b5f83015167ffffffffffffffff8111156200041657620004156200020c565b5b6200042485828601620003ab565b925050602083015167ffffffffffffffff8111156200044857620004476200020c565b5b6200045685828601620003ab565b9150509250929050565b7f4e487b71000000000000000000000000000000000000000000000000000000005f52603260045260245ffd5b7f4e487b71000000000000000000000000000000000000000000000000000000005f52601160045260245ffd5b5f819050919050565b5f620004cf82620004ba565b91507fffffffffffffffffffffffffffffffffffffffffffffffffffffffffffffffff82036200050457620005036200048d565b5b600182019050919050565b5f82825260208201905092915050565b7f596f7520617265206e6f7420616e20696e736964657220736563746f722e00005f82015250565b5f62000555601e836200050f565b915062000562826200051f565b602082019050919050565b5f6020820190508181035f830152620005868162000547565b9050919050565b6112a8806200059b5f395ff3fe608060405234801561000f575f80fd5b5060043610610060575f3560e01c80630b76fab3146100645780632084ea53146100805780633481a95a146100b05780633ff36493146100e0578063a429f4f714610110578063fef7f40a14610141575b5f80fd5b61007e60048036038101906100799190610a65565b610160565b005b61009a60048036038101906100959190610aed565b61032e565b6040516100a79190610daa565b60405180910390f35b6100ca60048036038101906100c59190610aed565b6104f7565b6040516100d79190610dd9565b60405180910390f35b6100fa60048036038101906100f59190610aed565b610532565b6040516101079190610dd9565b60405180910390f35b61012a60048036038101906101259190610aed565b61056c565b604051610138929190610e01565b60405180910390f35b6101496105ba565b604051610157929190610e01565b60405180910390f35b5f805b6001805490508110156101f9573373ffffffffffffffffffffffffffffffffffffffff165f828154811061019a57610199610e28565b5b905f5260205f20015f9054906101000a900473ffffffffffffffffffffffffffffffffffffffff1673ffffffffffffffffffffffffffffffffffffffff16036101e657600191506101f9565b80806101f190610e82565b915050610163565b508061023a576040517f08c379a000000000000000000000000000000000000000000000000000000000815260040161023190610f23565b60405180910390fd5b5f60405180608001604052803373ffffffffffffffffffffffffffffffffffffffff168152602001868152602001858152602001848152509050600281908060018154018082558091505060019003905f5260205f2090600402015f909190919091505f820151815f015f6101000a81548173ffffffffffffffffffffffffffffffffffffffff021916908373ffffffffffffffffffffffffffffffffffffffff16021790555060208201518160010190805190602001906102fd9291906105ea565b50604082015181600201908051906020019061031a929190610641565b506060820151816003015550505050505050565b61033661068c565b5f805b5f805490508110156103ce573373ffffffffffffffffffffffffffffffffffffffff165f828154811061036f5761036e610e28565b5b905f5260205f20015f9054906101000a900473ffffffffffffffffffffffffffffffffffffffff1673ffffffffffffffffffffffffffffffffffffffff16036103bb57600191506103ce565b80806103c690610e82565b915050610339565b508015610410576040517f08c379a000000000000000000000000000000000000000000000000000000000815260040161040790610f8b565b60405180910390fd5b6104198361032e565b60035f820151815f015f6101000a81548173ffffffffffffffffffffffffffffffffffffffff021916908373ffffffffffffffffffffffffffffffffffffffff160217905550602082015181600101908051906020019061047b9291906105ea565b506040820151816002019080519060200190610498929190610641565b50606082015181600301559050506104af8361032e565b5f015160075f6101000a81548173ffffffffffffffffffffffffffffffffffffffff021916908373ffffffffffffffffffffffffffffffffffffffff16021790555050919050565b60018181548110610506575f80fd5b905f5260205f20015f915054906101000a900473ffffffffffffffffffffffffffffffffffffffff1681565b5f8181548110610540575f80fd5b905f5260205f20015f915054906101000a900473ffffffffffffffffffffffffffffffffffffffff1681565b6002818154811061057b575f80fd5b905f5260205f2090600402015f91509050805f015f9054906101000a900473ffffffffffffffffffffffffffffffffffffffff16908060030154905082565b6003805f015f9054906101000a900473ffffffffffffffffffffffffffffffffffffffff16908060030154905082565b828054828255905f5260205f20908101928215610630579160200282015b8281111561062f57825182908161061f91906111a3565b5091602001919060010190610608565b5b50905061063d91906106c8565b5090565b828054828255905f5260205f2090810192821561067b579160200282015b8281111561067a57825182559160200191906001019061065f565b5b50905061068891906106eb565b5090565b60405180608001604052805f73ffffffffffffffffffffffffffffffffffffffff16815260200160608152602001606081526020015f81525090565b5b808211156106e7575f81816106de9190610706565b506001016106c9565b5090565b5b80821115610702575f815f9055506001016106ec565b5090565b50805461071290610fd6565b5f825580601f106107235750610740565b601f0160209004905f5260205f209081019061073f91906106eb565b5b50565b5f604051905090565b5f80fd5b5f80fd5b5f80fd5b5f601f19601f8301169050919050565b7f4e487b71000000000000000000000000000000000000000000000000000000005f52604160045260245ffd5b61079e82610758565b810181811067ffffffffffffffff821117156107bd576107bc610768565b5b80604052505050565b5f6107cf610743565b90506107db8282610795565b919050565b5f67ffffffffffffffff8211156107fa576107f9610768565b5b602082029050602081019050919050565b5f80fd5b5f80fd5b5f67ffffffffffffffff82111561082d5761082c610768565b5b61083682610758565b9050602081019050919050565b828183375f83830152505050565b5f61086361085e84610813565b6107c6565b90508281526020810184848401111561087f5761087e61080f565b5b61088a848285610843565b509392505050565b5f82601f8301126108a6576108a5610754565b5b81356108b6848260208601610851565b91505092915050565b5f6108d16108cc846107e0565b6107c6565b905080838252602082019050602084028301858111156108f4576108f361080b565b5b835b8181101561093b57803567ffffffffffffffff81111561091957610918610754565b5b8086016109268982610892565b855260208501945050506020810190506108f6565b5050509392505050565b5f82601f83011261095957610958610754565b5b81356109698482602086016108bf565b91505092915050565b5f67ffffffffffffffff82111561098c5761098b610768565b5b602082029050602081019050919050565b5f819050919050565b6109af8161099d565b81146109b9575f80fd5b50565b5f813590506109ca816109a6565b92915050565b5f6109e26109dd84610972565b6107c6565b90508083825260208201905060208402830185811115610a0557610a0461080b565b5b835b81811015610a2e5780610a1a88826109bc565b845260208401935050602081019050610a07565b5050509392505050565b5f82601f830112610a4c57610a4b610754565b5b8135610a5c8482602086016109d0565b91505092915050565b5f805f60608486031215610a7c57610a7b61074c565b5b5f84013567ffffffffffffffff811115610a9957610a98610750565b5b610aa586828701610945565b935050602084013567ffffffffffffffff811115610ac657610ac5610750565b5b610ad286828701610a38565b9250506040610ae3868287016109bc565b9150509250925092565b5f60208284031215610b0257610b0161074c565b5b5f610b0f848285016109bc565b91505092915050565b5f73ffffffffffffffffffffffffffffffffffffffff82169050919050565b5f610b4182610b18565b9050919050565b610b5181610b37565b82525050565b5f81519050919050565b5f82825260208201905092915050565b5f819050602082019050919050565b5f81519050919050565b5f82825260208201905092915050565b5f5b83811015610bb7578082015181840152602081019050610b9c565b5f8484015250505050565b5f610bcc82610b80565b610bd68185610b8a565b9350610be6818560208601610b9a565b610bef81610758565b840191505092915050565b5f610c058383610bc2565b905092915050565b5f602082019050919050565b5f610c2382610b57565b610c2d8185610b61565b935083602082028501610c3f85610b71565b805f5b85811015610c7a5784840389528151610c5b8582610bfa565b9450610c6683610c0d565b925060208a01995050600181019050610c42565b50829750879550505050505092915050565b5f81519050919050565b5f82825260208201905092915050565b5f819050602082019050919050565b610cbe8161099d565b82525050565b5f610ccf8383610cb5565b60208301905092915050565b5f602082019050919050565b5f610cf182610c8c565b610cfb8185610c96565b9350610d0683610ca6565b805f5b83811015610d36578151610d1d8882610cc4565b9750610d2883610cdb565b925050600181019050610d09565b5085935050505092915050565b5f608083015f830151610d585f860182610b48565b5060208301518482036020860152610d708282610c19565b91505060408301518482036040860152610d8a8282610ce7565b9150506060830151610d9f6060860182610cb5565b508091505092915050565b5f6020820190508181035f830152610dc28184610d43565b905092915050565b610dd381610b37565b82525050565b5f602082019050610dec5f830184610dca565b92915050565b610dfb8161099d565b82525050565b5f604082019050610e145f830185610dca565b610e216020830184610df2565b9392505050565b7f4e487b71000000000000000000000000000000000000000000000000000000005f52603260045260245ffd5b7f4e487b71000000000000000000000000000000000000000000000000000000005f52601160045260245ffd5b5f610e8c8261099d565b91507fffffffffffffffffffffffffffffffffffffffffffffffffffffffffffffffff8203610ebe57610ebd610e55565b5b600182019050919050565b5f82825260208201905092915050565b7f596f7520617265206e6f7420766572696669656420636f6e74726163746f722e5f82015250565b5f610f0d602083610ec9565b9150610f1882610ed9565b602082019050919050565b5f6020820190508181035f830152610f3a81610f01565b9050919050565b7f596f7520617265206e6f7420616e20696e736964657220736563746f722e00005f82015250565b5f610f75601e83610ec9565b9150610f8082610f41565b602082019050919050565b5f6020820190508181035f830152610fa281610f69565b9050919050565b7f4e487b71000000000000000000000000000000000000000000000000000000005f52602260045260245ffd5b5f6002820490506001821680610fed57607f821691505b60208210810361100057610fff610fa9565b5b50919050565b5f819050815f5260205f209050919050565b5f6020601f8301049050919050565b5f82821b905092915050565b5f600883026110627fffffffffffffffffffffffffffffffffffffffffffffffffffffffffffffffff82611027565b61106c8683611027565b95508019841693508086168417925050509392505050565b5f819050919050565b5f6110a76110a261109d8461099d565b611084565b61099d565b9050919050565b5f819050919050565b6110c08361108d565b6110d46110cc826110ae565b848454611033565b825550505050565b5f90565b6110e86110dc565b6110f38184846110b7565b505050565b5b818110156111165761110b5f826110e0565b6001810190506110f9565b5050565b601f82111561115b5761112c81611006565b61113584611018565b81016020851015611144578190505b61115861115085611018565b8301826110f8565b50505b505050565b5f82821c905092915050565b5f61117b5f1984600802611160565b1980831691505092915050565b5f611193838361116c565b9150826002028217905092915050565b6111ac82610b80565b67ffffffffffffffff8111156111c5576111c4610768565b5b6111cf8254610fd6565b6111da82828561111a565b5f60209050601f83116001811461120b575f84156111f9578287015190505b6112038582611188565b86555061126a565b601f19841661121986611006565b5f5b828110156112405784890151825560018201915060208501945060208101905061121b565b8683101561125d5784890151611259601f89168261116c565b8355505b6001600288020188555050505b50505050505056fea264697066735822122045ecded9f71218a9bab8afdbf3cb60e2c576e3c5e730a4621c99f20e934e75cf64736f6c63430008140033",
  "immutableReferences": {},
  "source": "// SPDX-License-Identifier: MIT\npragma solidity ^0.8.18;\n\nerror notContractor();\nstruct Application{\n    address nameOfContractor;\n    string[] works;\n    uint256[] amounts;\n    uint256 total;\n}\n\ncontract Task{\n    address[] public sectors;\n    address[] public contractors;\n    Application[] public Applications;\n    Application public acceptApp;\n    address acceptedContractor;\n\n    // Modifer for contractors only\n    modifier onlyContractor{\n        bool isContractor = false;\n        for (uint256 i = 0; i < contractors.length; i++) {\n            if (sectors[i] == msg.sender) {\n                isContractor = true;\n                break;\n            }\n        }\n        require(isContractor, \"You are not verified contractor.\");\n        _;\n    }\n\n    // constructor for Task, only sectors can call\n    constructor(address[] memory sector, address[] memory contractor){\n        sectors = sector;\n        contractors = contractor;\n        bool isSector = false;\n        for (uint256 i = 0; i < sectors.length; i++) {\n            if (sectors[i] == msg.sender) {\n                isSector = true;\n                break;\n            }\n        }\n        if(isSector){\n            revert(\"You are not an insider sector.\");\n        }\n    }\n\n    // Apply for the contractors only\n    function f_apply (string[] memory wrk, uint256[] memory amt, uint256 tot) public onlyContractor {\n        Application memory app = Application(msg.sender, wrk, amt, tot);\n        Applications.push(app);\n    }\n\n    // Accept Application from all the applications\n    function acceptApplication(uint256 indexOfApplication) public returns(Application memory){\n        bool isSector = false;\n        for (uint256 i = 0; i < sectors.length; i++) {\n            if (sectors[i] == msg.sender) {\n                isSector = true;\n                break;\n            }\n        }\n        if(isSector){\n            revert(\"You are not an insider sector.\");\n        }\n        acceptApp = acceptApplication(indexOfApplication);\n        acceptedContractor = acceptApplication(indexOfApplication).nameOfContractor;\n    }\n\n}",
  "sourcePath": "/home/fatguy/Desktop/codes/web3/TaxRevenueTransparency/contracts/task.sol",
  "compiler": {
    "name": "solc",
    "version": "0.8.20+commit.a1b79de6.Emscripten.clang"
  },
  "schemaVersion": "3.4.14",
  "updatedAt": "2023-07-15T06:04:40.885Z",
  "devdoc": {
    "kind": "dev",
    "methods": {},
    "version": 1
  },
  "userdoc": {
    "kind": "user",
    "methods": {},
    "version": 1
  }
}