{
  "contractName": "Tasks",
  "abi": [
    {
      "inputs": [],
      "stateMutability": "nonpayable",
      "type": "constructor"
    },
    {
      "inputs": [
        {
          "internalType": "uint256",
          "name": "",
          "type": "uint256"
        }
      ],
      "name": "Applications",
      "outputs": [
        {
          "internalType": "address",
          "name": "nameOfContractor",
          "type": "address"
        },
        {
          "internalType": "uint256",
          "name": "total",
          "type": "uint256"
        }
      ],
      "stateMutability": "view",
      "type": "function",
      "constant": true
    },
    {
      "inputs": [],
      "name": "acceptApp",
      "outputs": [
        {
          "internalType": "address",
          "name": "nameOfContractor",
          "type": "address"
        },
        {
          "internalType": "uint256",
          "name": "total",
          "type": "uint256"
        }
      ],
      "stateMutability": "view",
      "type": "function",
      "constant": true
    },
    {
      "inputs": [],
      "name": "contractOwner",
      "outputs": [
        {
          "internalType": "address",
          "name": "",
          "type": "address"
        }
      ],
      "stateMutability": "view",
      "type": "function",
      "constant": true
    },
    {
      "inputs": [
        {
          "internalType": "uint256",
          "name": "",
          "type": "uint256"
        }
      ],
      "name": "contractors",
      "outputs": [
        {
          "internalType": "address",
          "name": "",
          "type": "address"
        }
      ],
      "stateMutability": "view",
      "type": "function",
      "constant": true
    },
    {
      "inputs": [
        {
          "internalType": "uint256",
          "name": "",
          "type": "uint256"
        }
      ],
      "name": "sectors",
      "outputs": [
        {
          "internalType": "address",
          "name": "",
          "type": "address"
        }
      ],
      "stateMutability": "view",
      "type": "function",
      "constant": true
    },
    {
      "inputs": [
        {
          "internalType": "address",
          "name": "_address",
          "type": "address"
        }
      ],
      "name": "setSector",
      "outputs": [],
      "stateMutability": "nonpayable",
      "type": "function"
    },
    {
      "inputs": [
        {
          "internalType": "string[]",
          "name": "wrk",
          "type": "string[]"
        },
        {
          "internalType": "uint256[]",
          "name": "amt",
          "type": "uint256[]"
        },
        {
          "internalType": "uint256",
          "name": "tot",
          "type": "uint256"
        }
      ],
      "name": "f_apply",
      "outputs": [],
      "stateMutability": "nonpayable",
      "type": "function"
    },
    {
      "inputs": [
        {
          "internalType": "uint256",
          "name": "indexOfApplication",
          "type": "uint256"
        }
      ],
      "name": "acceptApplication",
      "outputs": [],
      "stateMutability": "nonpayable",
      "type": "function"
    }
  ],
  "bytecode": "0x608060405234801561000f575f80fd5b503360085f6101000a81548173ffffffffffffffffffffffffffffffffffffffff021916908373ffffffffffffffffffffffffffffffffffffffff1602179055506112f48061005d5f395ff3fe608060405234801561000f575f80fd5b5060043610610086575f3560e01c806361e8e8b81161005957806361e8e8b814610122578063a429f4f71461013e578063ce606ee01461016f578063fef7f40a1461018d57610086565b80630b76fab31461008a5780632084ea53146100a65780633481a95a146100c25780633ff36493146100f2575b5f80fd5b6100a4600480360381019061009f9190610bda565b6101ac565b005b6100c060048036038101906100bb9190610c62565b61037a565b005b6100dc60048036038101906100d79190610c62565b610599565b6040516100e99190610ccc565b60405180910390f35b61010c60048036038101906101079190610c62565b6105d4565b6040516101199190610ccc565b60405180910390f35b61013c60048036038101906101379190610d0f565b61060e565b005b61015860048036038101906101539190610c62565b610651565b604051610166929190610d49565b60405180910390f35b61017761069f565b6040516101849190610ccc565b60405180910390f35b6101956106c4565b6040516101a3929190610d49565b60405180910390f35b5f805b600180549050811015610245573373ffffffffffffffffffffffffffffffffffffffff165f82815481106101e6576101e5610d70565b5b905f5260205f20015f9054906101000a900473ffffffffffffffffffffffffffffffffffffffff1673ffffffffffffffffffffffffffffffffffffffff16036102325760019150610245565b808061023d90610dca565b9150506101af565b5080610286576040517f08c379a000000000000000000000000000000000000000000000000000000000815260040161027d90610e6b565b60405180910390fd5b5f60405180608001604052803373ffffffffffffffffffffffffffffffffffffffff168152602001868152602001858152602001848152509050600281908060018154018082558091505060019003905f5260205f2090600402015f909190919091505f820151815f015f6101000a81548173ffffffffffffffffffffffffffffffffffffffff021916908373ffffffffffffffffffffffffffffffffffffffff16021790555060208201518160010190805190602001906103499291906106f4565b50604082015181600201908051906020019061036692919061074b565b506060820151816003015550505050505050565b5f805b5f80549050811015610412573373ffffffffffffffffffffffffffffffffffffffff165f82815481106103b3576103b2610d70565b5b905f5260205f20015f9054906101000a900473ffffffffffffffffffffffffffffffffffffffff1673ffffffffffffffffffffffffffffffffffffffff16036103ff5760019150610412565b808061040a90610dca565b91505061037d565b508015610454576040517f08c379a000000000000000000000000000000000000000000000000000000000815260040161044b90610ed3565b60405180910390fd5b6002828154811061046857610467610d70565b5b905f5260205f20906004020160035f82015f9054906101000a900473ffffffffffffffffffffffffffffffffffffffff16815f015f6101000a81548173ffffffffffffffffffffffffffffffffffffffff021916908373ffffffffffffffffffffffffffffffffffffffff16021790555060018201816001019080546104ef929190610796565b5060028201816002019080546105069291906107ef565b50600382015481600301559050506002828154811061052857610527610d70565b5b905f5260205f2090600402015f015f9054906101000a900473ffffffffffffffffffffffffffffffffffffffff1660075f6101000a81548173ffffffffffffffffffffffffffffffffffffffff021916908373ffffffffffffffffffffffffffffffffffffffff1602179055505050565b600181815481106105a8575f80fd5b905f5260205f20015f915054906101000a900473ffffffffffffffffffffffffffffffffffffffff1681565b5f81815481106105e2575f80fd5b905f5260205f20015f915054906101000a900473ffffffffffffffffffffffffffffffffffffffff1681565b8060095f6101000a81548173ffffffffffffffffffffffffffffffffffffffff021916908373ffffffffffffffffffffffffffffffffffffffff16021790555050565b60028181548110610660575f80fd5b905f5260205f2090600402015f91509050805f015f9054906101000a900473ffffffffffffffffffffffffffffffffffffffff16908060030154905082565b60085f9054906101000a900473ffffffffffffffffffffffffffffffffffffffff1681565b6003805f015f9054906101000a900473ffffffffffffffffffffffffffffffffffffffff16908060030154905082565b828054828255905f5260205f2090810192821561073a579160200282015b8281111561073957825182908161072991906110f5565b5091602001919060010190610712565b5b509050610747919061083d565b5090565b828054828255905f5260205f20908101928215610785579160200282015b82811115610784578251825591602001919060010190610769565b5b5090506107929190610860565b5090565b828054828255905f5260205f209081019282156107de575f5260205f209182015b828111156107dd57828290816107cd91906111d9565b50916001019190600101906107b7565b5b5090506107eb919061083d565b5090565b828054828255905f5260205f2090810192821561082c575f5260205f209182015b8281111561082b578254825591600101919060010190610810565b5b5090506108399190610860565b5090565b5b8082111561085c575f8181610853919061087b565b5060010161083e565b5090565b5b80821115610877575f815f905550600101610861565b5090565b50805461088790610f28565b5f825580601f1061089857506108b5565b601f0160209004905f5260205f20908101906108b49190610860565b5b50565b5f604051905090565b5f80fd5b5f80fd5b5f80fd5b5f601f19601f8301169050919050565b7f4e487b71000000000000000000000000000000000000000000000000000000005f52604160045260245ffd5b610913826108cd565b810181811067ffffffffffffffff82111715610932576109316108dd565b5b80604052505050565b5f6109446108b8565b9050610950828261090a565b919050565b5f67ffffffffffffffff82111561096f5761096e6108dd565b5b602082029050602081019050919050565b5f80fd5b5f80fd5b5f67ffffffffffffffff8211156109a2576109a16108dd565b5b6109ab826108cd565b9050602081019050919050565b828183375f83830152505050565b5f6109d86109d384610988565b61093b565b9050828152602081018484840111156109f4576109f3610984565b5b6109ff8482856109b8565b509392505050565b5f82601f830112610a1b57610a1a6108c9565b5b8135610a2b8482602086016109c6565b91505092915050565b5f610a46610a4184610955565b61093b565b90508083825260208201905060208402830185811115610a6957610a68610980565b5b835b81811015610ab057803567ffffffffffffffff811115610a8e57610a8d6108c9565b5b808601610a9b8982610a07565b85526020850194505050602081019050610a6b565b5050509392505050565b5f82601f830112610ace57610acd6108c9565b5b8135610ade848260208601610a34565b91505092915050565b5f67ffffffffffffffff821115610b0157610b006108dd565b5b602082029050602081019050919050565b5f819050919050565b610b2481610b12565b8114610b2e575f80fd5b50565b5f81359050610b3f81610b1b565b92915050565b5f610b57610b5284610ae7565b61093b565b90508083825260208201905060208402830185811115610b7a57610b79610980565b5b835b81811015610ba35780610b8f8882610b31565b845260208401935050602081019050610b7c565b5050509392505050565b5f82601f830112610bc157610bc06108c9565b5b8135610bd1848260208601610b45565b91505092915050565b5f805f60608486031215610bf157610bf06108c1565b5b5f84013567ffffffffffffffff811115610c0e57610c0d6108c5565b5b610c1a86828701610aba565b935050602084013567ffffffffffffffff811115610c3b57610c3a6108c5565b5b610c4786828701610bad565b9250506040610c5886828701610b31565b9150509250925092565b5f60208284031215610c7757610c766108c1565b5b5f610c8484828501610b31565b91505092915050565b5f73ffffffffffffffffffffffffffffffffffffffff82169050919050565b5f610cb682610c8d565b9050919050565b610cc681610cac565b82525050565b5f602082019050610cdf5f830184610cbd565b92915050565b610cee81610cac565b8114610cf8575f80fd5b50565b5f81359050610d0981610ce5565b92915050565b5f60208284031215610d2457610d236108c1565b5b5f610d3184828501610cfb565b91505092915050565b610d4381610b12565b82525050565b5f604082019050610d5c5f830185610cbd565b610d696020830184610d3a565b9392505050565b7f4e487b71000000000000000000000000000000000000000000000000000000005f52603260045260245ffd5b7f4e487b71000000000000000000000000000000000000000000000000000000005f52601160045260245ffd5b5f610dd482610b12565b91507fffffffffffffffffffffffffffffffffffffffffffffffffffffffffffffffff8203610e0657610e05610d9d565b5b600182019050919050565b5f82825260208201905092915050565b7f596f7520617265206e6f7420766572696669656420636f6e74726163746f722e5f82015250565b5f610e55602083610e11565b9150610e6082610e21565b602082019050919050565b5f6020820190508181035f830152610e8281610e49565b9050919050565b7f596f7520617265206e6f7420616e20696e736964657220736563746f722e00005f82015250565b5f610ebd601e83610e11565b9150610ec882610e89565b602082019050919050565b5f6020820190508181035f830152610eea81610eb1565b9050919050565b5f81519050919050565b7f4e487b71000000000000000000000000000000000000000000000000000000005f52602260045260245ffd5b5f6002820490506001821680610f3f57607f821691505b602082108103610f5257610f51610efb565b5b50919050565b5f819050815f5260205f209050919050565b5f6020601f8301049050919050565b5f82821b905092915050565b5f60088302610fb47fffffffffffffffffffffffffffffffffffffffffffffffffffffffffffffffff82610f79565b610fbe8683610f79565b95508019841693508086168417925050509392505050565b5f819050919050565b5f610ff9610ff4610fef84610b12565b610fd6565b610b12565b9050919050565b5f819050919050565b61101283610fdf565b61102661101e82611000565b848454610f85565b825550505050565b5f90565b61103a61102e565b611045818484611009565b505050565b5b818110156110685761105d5f82611032565b60018101905061104b565b5050565b601f8211156110ad5761107e81610f58565b61108784610f6a565b81016020851015611096578190505b6110aa6110a285610f6a565b83018261104a565b50505b505050565b5f82821c905092915050565b5f6110cd5f19846008026110b2565b1980831691505092915050565b5f6110e583836110be565b9150826002028217905092915050565b6110fe82610ef1565b67ffffffffffffffff811115611117576111166108dd565b5b6111218254610f28565b61112c82828561106c565b5f60209050601f83116001811461115d575f841561114b578287015190505b61115585826110da565b8655506111bc565b601f19841661116b86610f58565b5f5b828110156111925784890151825560018201915060208501945060208101905061116d565b868310156111af57848901516111ab601f8916826110be565b8355505b6001600288020188555050505b505050505050565b5f815490506111d281610f28565b9050919050565b8181036111e75750506112bc565b6111f0826111c4565b67ffffffffffffffff811115611209576112086108dd565b5b6112138254610f28565b61121e82828561106c565b5f601f83116001811461124b575f8415611239578287015490505b61124385826110da565b8655506112b5565b601f19841661125987610f58565b965061126486610f58565b5f5b8281101561128b57848901548255600182019150600185019450602081019050611266565b868310156112a857848901546112a4601f8916826110be565b8355505b6001600288020188555050505b5050505050505b56fea26469706673582212207e40123be2a209bf3b4b82a0d73a450b7b9f0a05fd65a0372f2f39a62db2056864736f6c63430008140033",
  "immutableReferences": {},
  "source": "// SPDX-License-Identifier: MIT\npragma solidity ^0.8.0;\n\nerror notContractor();\n\n\ncontract Tasks{\n    struct Application{\n        address nameOfContractor;\n        string[] works;\n        // address[] clients; // The tracking of money from the contractor \n        uint256[] amounts;\n        uint256 total;\n    }\n\n    address[] public sectors;// = [0x3470F7DB7c0aD89650360B8416A1465A6155Fd12, 0xD7fd75A0196a32bf5856a8fA6e4A9390Af83A835, 0xA3ef3E4B768f4bC46C7B410B2D010Dee643F1085, 0x9AE20fFF2b0fc93A7BBD452Ca880a8606A30D8A9];\n    address[] public contractors;//= [0x5fF505A0753529A586f3EC6A543e394ddc221A61, 0x92e9a91A2410c6b1C9dd4813c1723c6c50040815, 0x28693CfF9BC728678869d0c9F42919Dd46eBBCdE];\n    Application[] public Applications;\n    Application public acceptApp;\n    address acceptedContractor;\n    address public contractOwner;\n    address temp;\n\n    constructor(){\n        contractOwner = msg.sender;\n    }\n\n    function setSector(address _address) public {\n        temp = _address;\n    }\n\n\n    // Modifer for contractors only\n    modifier onlyContractor{\n        bool isContractor = false;\n        for (uint256 i = 0; i < contractors.length; i++) {\n            if (sectors[i] == msg.sender) {\n                isContractor = true;\n                break;\n            }\n        }\n        require(isContractor, \"You are not verified contractor.\");\n        _;\n    }\n\n    // Apply for the contractors only\n    function f_apply (string[] memory wrk, uint256[] memory amt, uint256 tot) public onlyContractor {\n        Application memory app = Application(msg.sender, wrk, amt, tot);\n        Applications.push(app);\n    }\n\n    // Accept Application from all the applications\n    function acceptApplication(uint256 indexOfApplication) public {\n        bool isSector = false;\n        for (uint256 i = 0; i < sectors.length; i++) {\n            if (sectors[i] == msg.sender) {\n                isSector = true;\n                break;\n            }\n        }\n        if(isSector){\n            revert(\"You are not an insider sector.\");\n        }\n        acceptApp = Applications[indexOfApplication];\n        acceptedContractor = Applications[indexOfApplication].nameOfContractor;\n    }\n}",
  "sourcePath": "/home/fatguy/Desktop/codes/web3/TaxRevenueTransparency/contracts/Tasks.sol",
  "compiler": {
    "name": "solc",
    "version": "0.8.20+commit.a1b79de6.Emscripten.clang"
  },
  "schemaVersion": "3.4.14",
  "updatedAt": "2023-07-16T16:38:24.322Z",
  "networkType": "ethereum",
  "devdoc": {
    "kind": "dev",
    "methods": {},
    "version": 1
  },
  "userdoc": {
    "kind": "user",
    "methods": {},
    "version": 1
  }
}