{
  "contractName": "Task",
  "abi": [
    {
      "inputs": [
        {
          "internalType": "address[]",
          "name": "sector",
          "type": "address[]"
        },
        {
          "internalType": "address[]",
          "name": "contractor",
          "type": "address[]"
        }
      ],
      "stateMutability": "nonpayable",
      "type": "constructor"
    },
    {
      "inputs": [
        {
          "internalType": "uint256",
          "name": "",
          "type": "uint256"
        }
      ],
      "name": "Applications",
      "outputs": [
        {
          "internalType": "address",
          "name": "nameOfContractor",
          "type": "address"
        },
        {
          "internalType": "uint256",
          "name": "total",
          "type": "uint256"
        }
      ],
      "stateMutability": "view",
      "type": "function"
    },
    {
      "inputs": [],
      "name": "acceptApp",
      "outputs": [
        {
          "internalType": "address",
          "name": "nameOfContractor",
          "type": "address"
        },
        {
          "internalType": "uint256",
          "name": "total",
          "type": "uint256"
        }
      ],
      "stateMutability": "view",
      "type": "function"
    },
    {
      "inputs": [
        {
          "internalType": "uint256",
          "name": "",
          "type": "uint256"
        }
      ],
      "name": "contractors",
      "outputs": [
        {
          "internalType": "address",
          "name": "",
          "type": "address"
        }
      ],
      "stateMutability": "view",
      "type": "function"
    },
    {
      "inputs": [
        {
          "internalType": "uint256",
          "name": "",
          "type": "uint256"
        }
      ],
      "name": "sectors",
      "outputs": [
        {
          "internalType": "address",
          "name": "",
          "type": "address"
        }
      ],
      "stateMutability": "view",
      "type": "function"
    },
    {
      "inputs": [
        {
          "internalType": "string[]",
          "name": "wrk",
          "type": "string[]"
        },
        {
          "internalType": "uint256[]",
          "name": "amt",
          "type": "uint256[]"
        },
        {
          "internalType": "uint256",
          "name": "tot",
          "type": "uint256"
        }
      ],
      "name": "f_apply",
      "outputs": [],
      "stateMutability": "nonpayable",
      "type": "function"
    },
    {
      "inputs": [
        {
          "internalType": "uint256",
          "name": "indexOfApplication",
          "type": "uint256"
        }
      ],
      "name": "acceptApplication",
      "outputs": [],
      "stateMutability": "nonpayable",
      "type": "function"
    }
  ],
  "bytecode": "0x608060405234801562000010575f80fd5b5060405162001772380380620017728339818101604052810190620000369190620003dd565b815f90805190602001906200004d92919062000156565b5080600190805190602001906200006692919062000156565b505f805b5f8054905081101562000108573373ffffffffffffffffffffffffffffffffffffffff165f8281548110620000a457620000a362000460565b5b905f5260205f20015f9054906101000a900473ffffffffffffffffffffffffffffffffffffffff1673ffffffffffffffffffffffffffffffffffffffff1603620000f2576001915062000108565b8080620000ff90620004c3565b9150506200006a565b5080156200014d576040517f08c379a000000000000000000000000000000000000000000000000000000000815260040162000144906200056d565b60405180910390fd5b5050506200058d565b828054828255905f5260205f20908101928215620001cf579160200282015b82811115620001ce578251825f6101000a81548173ffffffffffffffffffffffffffffffffffffffff021916908373ffffffffffffffffffffffffffffffffffffffff1602179055509160200191906001019062000175565b5b509050620001de9190620001e2565b5090565b5b80821115620001fb575f815f905550600101620001e3565b5090565b5f604051905090565b5f80fd5b5f80fd5b5f80fd5b5f601f19601f8301169050919050565b7f4e487b71000000000000000000000000000000000000000000000000000000005f52604160045260245ffd5b6200025c8262000214565b810181811067ffffffffffffffff821117156200027e576200027d62000224565b5b80604052505050565b5f62000292620001ff565b9050620002a0828262000251565b919050565b5f67ffffffffffffffff821115620002c257620002c162000224565b5b602082029050602081019050919050565b5f80fd5b5f73ffffffffffffffffffffffffffffffffffffffff82169050919050565b5f6200030282620002d7565b9050919050565b6200031481620002f6565b81146200031f575f80fd5b50565b5f81519050620003328162000309565b92915050565b5f6200034e6200034884620002a5565b62000287565b90508083825260208201905060208402830185811115620003745762000373620002d3565b5b835b81811015620003a157806200038c888262000322565b84526020840193505060208101905062000376565b5050509392505050565b5f82601f830112620003c257620003c162000210565b5b8151620003d484826020860162000338565b91505092915050565b5f8060408385031215620003f657620003f562000208565b5b5f83015167ffffffffffffffff8111156200041657620004156200020c565b5b6200042485828601620003ab565b925050602083015167ffffffffffffffff8111156200044857620004476200020c565b5b6200045685828601620003ab565b9150509250929050565b7f4e487b71000000000000000000000000000000000000000000000000000000005f52603260045260245ffd5b7f4e487b71000000000000000000000000000000000000000000000000000000005f52601160045260245ffd5b5f819050919050565b5f620004cf82620004ba565b91507fffffffffffffffffffffffffffffffffffffffffffffffffffffffffffffffff82036200050457620005036200048d565b5b600182019050919050565b5f82825260208201905092915050565b7f596f7520617265206e6f7420616e20696e736964657220736563746f722e00005f82015250565b5f62000555601e836200050f565b915062000562826200051f565b602082019050919050565b5f6020820190508181035f830152620005868162000547565b9050919050565b6111d7806200059b5f395ff3fe608060405234801561000f575f80fd5b5060043610610060575f3560e01c80630b76fab3146100645780632084ea53146100805780633481a95a1461009c5780633ff36493146100cc578063a429f4f7146100fc578063fef7f40a1461012d575b5f80fd5b61007e60048036038101906100799190610b12565b61014c565b005b61009a60048036038101906100959190610b9a565b61031a565b005b6100b660048036038101906100b19190610b9a565b610539565b6040516100c39190610c04565b60405180910390f35b6100e660048036038101906100e19190610b9a565b610574565b6040516100f39190610c04565b60405180910390f35b61011660048036038101906101119190610b9a565b6105ae565b604051610124929190610c2c565b60405180910390f35b6101356105fc565b604051610143929190610c2c565b60405180910390f35b5f805b6001805490508110156101e5573373ffffffffffffffffffffffffffffffffffffffff165f828154811061018657610185610c53565b5b905f5260205f20015f9054906101000a900473ffffffffffffffffffffffffffffffffffffffff1673ffffffffffffffffffffffffffffffffffffffff16036101d257600191506101e5565b80806101dd90610cad565b91505061014f565b5080610226576040517f08c379a000000000000000000000000000000000000000000000000000000000815260040161021d90610d4e565b60405180910390fd5b5f60405180608001604052803373ffffffffffffffffffffffffffffffffffffffff168152602001868152602001858152602001848152509050600281908060018154018082558091505060019003905f5260205f2090600402015f909190919091505f820151815f015f6101000a81548173ffffffffffffffffffffffffffffffffffffffff021916908373ffffffffffffffffffffffffffffffffffffffff16021790555060208201518160010190805190602001906102e992919061062c565b506040820151816002019080519060200190610306929190610683565b506060820151816003015550505050505050565b5f805b5f805490508110156103b2573373ffffffffffffffffffffffffffffffffffffffff165f828154811061035357610352610c53565b5b905f5260205f20015f9054906101000a900473ffffffffffffffffffffffffffffffffffffffff1673ffffffffffffffffffffffffffffffffffffffff160361039f57600191506103b2565b80806103aa90610cad565b91505061031d565b5080156103f4576040517f08c379a00000000000000000000000000000000000000000000000000000000081526004016103eb90610db6565b60405180910390fd5b6002828154811061040857610407610c53565b5b905f5260205f20906004020160035f82015f9054906101000a900473ffffffffffffffffffffffffffffffffffffffff16815f015f6101000a81548173ffffffffffffffffffffffffffffffffffffffff021916908373ffffffffffffffffffffffffffffffffffffffff160217905550600182018160010190805461048f9291906106ce565b5060028201816002019080546104a6929190610727565b5060038201548160030155905050600282815481106104c8576104c7610c53565b5b905f5260205f2090600402015f015f9054906101000a900473ffffffffffffffffffffffffffffffffffffffff1660075f6101000a81548173ffffffffffffffffffffffffffffffffffffffff021916908373ffffffffffffffffffffffffffffffffffffffff1602179055505050565b60018181548110610548575f80fd5b905f5260205f20015f915054906101000a900473ffffffffffffffffffffffffffffffffffffffff1681565b5f8181548110610582575f80fd5b905f5260205f20015f915054906101000a900473ffffffffffffffffffffffffffffffffffffffff1681565b600281815481106105bd575f80fd5b905f5260205f2090600402015f91509050805f015f9054906101000a900473ffffffffffffffffffffffffffffffffffffffff16908060030154905082565b6003805f015f9054906101000a900473ffffffffffffffffffffffffffffffffffffffff16908060030154905082565b828054828255905f5260205f20908101928215610672579160200282015b828111156106715782518290816106619190610fd8565b509160200191906001019061064a565b5b50905061067f9190610775565b5090565b828054828255905f5260205f209081019282156106bd579160200282015b828111156106bc5782518255916020019190600101906106a1565b5b5090506106ca9190610798565b5090565b828054828255905f5260205f20908101928215610716575f5260205f209182015b82811115610715578282908161070591906110bc565b50916001019190600101906106ef565b5b5090506107239190610775565b5090565b828054828255905f5260205f20908101928215610764575f5260205f209182015b82811115610763578254825591600101919060010190610748565b5b5090506107719190610798565b5090565b5b80821115610794575f818161078b91906107b3565b50600101610776565b5090565b5b808211156107af575f815f905550600101610799565b5090565b5080546107bf90610e0b565b5f825580601f106107d057506107ed565b601f0160209004905f5260205f20908101906107ec9190610798565b5b50565b5f604051905090565b5f80fd5b5f80fd5b5f80fd5b5f601f19601f8301169050919050565b7f4e487b71000000000000000000000000000000000000000000000000000000005f52604160045260245ffd5b61084b82610805565b810181811067ffffffffffffffff8211171561086a57610869610815565b5b80604052505050565b5f61087c6107f0565b90506108888282610842565b919050565b5f67ffffffffffffffff8211156108a7576108a6610815565b5b602082029050602081019050919050565b5f80fd5b5f80fd5b5f67ffffffffffffffff8211156108da576108d9610815565b5b6108e382610805565b9050602081019050919050565b828183375f83830152505050565b5f61091061090b846108c0565b610873565b90508281526020810184848401111561092c5761092b6108bc565b5b6109378482856108f0565b509392505050565b5f82601f83011261095357610952610801565b5b81356109638482602086016108fe565b91505092915050565b5f61097e6109798461088d565b610873565b905080838252602082019050602084028301858111156109a1576109a06108b8565b5b835b818110156109e857803567ffffffffffffffff8111156109c6576109c5610801565b5b8086016109d3898261093f565b855260208501945050506020810190506109a3565b5050509392505050565b5f82601f830112610a0657610a05610801565b5b8135610a1684826020860161096c565b91505092915050565b5f67ffffffffffffffff821115610a3957610a38610815565b5b602082029050602081019050919050565b5f819050919050565b610a5c81610a4a565b8114610a66575f80fd5b50565b5f81359050610a7781610a53565b92915050565b5f610a8f610a8a84610a1f565b610873565b90508083825260208201905060208402830185811115610ab257610ab16108b8565b5b835b81811015610adb5780610ac78882610a69565b845260208401935050602081019050610ab4565b5050509392505050565b5f82601f830112610af957610af8610801565b5b8135610b09848260208601610a7d565b91505092915050565b5f805f60608486031215610b2957610b286107f9565b5b5f84013567ffffffffffffffff811115610b4657610b456107fd565b5b610b52868287016109f2565b935050602084013567ffffffffffffffff811115610b7357610b726107fd565b5b610b7f86828701610ae5565b9250506040610b9086828701610a69565b9150509250925092565b5f60208284031215610baf57610bae6107f9565b5b5f610bbc84828501610a69565b91505092915050565b5f73ffffffffffffffffffffffffffffffffffffffff82169050919050565b5f610bee82610bc5565b9050919050565b610bfe81610be4565b82525050565b5f602082019050610c175f830184610bf5565b92915050565b610c2681610a4a565b82525050565b5f604082019050610c3f5f830185610bf5565b610c4c6020830184610c1d565b9392505050565b7f4e487b71000000000000000000000000000000000000000000000000000000005f52603260045260245ffd5b7f4e487b71000000000000000000000000000000000000000000000000000000005f52601160045260245ffd5b5f610cb782610a4a565b91507fffffffffffffffffffffffffffffffffffffffffffffffffffffffffffffffff8203610ce957610ce8610c80565b5b600182019050919050565b5f82825260208201905092915050565b7f596f7520617265206e6f7420766572696669656420636f6e74726163746f722e5f82015250565b5f610d38602083610cf4565b9150610d4382610d04565b602082019050919050565b5f6020820190508181035f830152610d6581610d2c565b9050919050565b7f596f7520617265206e6f7420616e20696e736964657220736563746f722e00005f82015250565b5f610da0601e83610cf4565b9150610dab82610d6c565b602082019050919050565b5f6020820190508181035f830152610dcd81610d94565b9050919050565b5f81519050919050565b7f4e487b71000000000000000000000000000000000000000000000000000000005f52602260045260245ffd5b5f6002820490506001821680610e2257607f821691505b602082108103610e3557610e34610dde565b5b50919050565b5f819050815f5260205f209050919050565b5f6020601f8301049050919050565b5f82821b905092915050565b5f60088302610e977fffffffffffffffffffffffffffffffffffffffffffffffffffffffffffffffff82610e5c565b610ea18683610e5c565b95508019841693508086168417925050509392505050565b5f819050919050565b5f610edc610ed7610ed284610a4a565b610eb9565b610a4a565b9050919050565b5f819050919050565b610ef583610ec2565b610f09610f0182610ee3565b848454610e68565b825550505050565b5f90565b610f1d610f11565b610f28818484610eec565b505050565b5b81811015610f4b57610f405f82610f15565b600181019050610f2e565b5050565b601f821115610f9057610f6181610e3b565b610f6a84610e4d565b81016020851015610f79578190505b610f8d610f8585610e4d565b830182610f2d565b50505b505050565b5f82821c905092915050565b5f610fb05f1984600802610f95565b1980831691505092915050565b5f610fc88383610fa1565b9150826002028217905092915050565b610fe182610dd4565b67ffffffffffffffff811115610ffa57610ff9610815565b5b6110048254610e0b565b61100f828285610f4f565b5f60209050601f831160018114611040575f841561102e578287015190505b6110388582610fbd565b86555061109f565b601f19841661104e86610e3b565b5f5b8281101561107557848901518255600182019150602085019450602081019050611050565b86831015611092578489015161108e601f891682610fa1565b8355505b6001600288020188555050505b505050505050565b5f815490506110b581610e0b565b9050919050565b8181036110ca57505061119f565b6110d3826110a7565b67ffffffffffffffff8111156110ec576110eb610815565b5b6110f68254610e0b565b611101828285610f4f565b5f601f83116001811461112e575f841561111c578287015490505b6111268582610fbd565b865550611198565b601f19841661113c87610e3b565b965061114786610e3b565b5f5b8281101561116e57848901548255600182019150600185019450602081019050611149565b8683101561118b5784890154611187601f891682610fa1565b8355505b6001600288020188555050505b5050505050505b56fea2646970667358221220bbca330c05ae6ce79dc3ed690a5774e72ce5a14ae7d8387f88bef1be0797e17c64736f6c63430008140033",
  "immutableReferences": {},
  "source": "// SPDX-License-Identifier: MIT\npragma solidity ^0.8.0;\n\nerror notContractor();\n\n\ncontract Task{\n    struct Application{\n        address nameOfContractor;\n        string[] works;\n        // address[] clients; // The tracking of money from the contractor \n        uint256[] amounts;\n        uint256 total;\n    }\n\n    address[] public sectors;\n    address[] public contractors;\n    Application[] public Applications;\n    Application public acceptApp;\n    address acceptedContractor;\n\n    // Modifer for contractors only\n    modifier onlyContractor{\n        bool isContractor = false;\n        for (uint256 i = 0; i < contractors.length; i++) {\n            if (sectors[i] == msg.sender) {\n                isContractor = true;\n                break;\n            }\n        }\n        require(isContractor, \"You are not verified contractor.\");\n        _;\n    }\n\n    // constructor for Task, only sectors can call\n    constructor(address[] memory sector, address[] memory contractor){\n        sectors = sector;\n        contractors = contractor;\n        bool isSector = false;\n        for (uint256 i = 0; i < sectors.length; i++) {\n            if (sectors[i] == msg.sender) {\n                isSector = true;\n                break;\n            }\n        }\n        if(isSector){\n            revert(\"You are not an insider sector.\");\n        }\n    }\n\n    // Apply for the contractors only\n    function f_apply (string[] memory wrk, uint256[] memory amt, uint256 tot) public onlyContractor {\n        Application memory app = Application(msg.sender, wrk, amt, tot);\n        Applications.push(app);\n    }\n\n    // Accept Application from all the applications\n    function acceptApplication(uint256 indexOfApplication) public {\n        bool isSector = false;\n        for (uint256 i = 0; i < sectors.length; i++) {\n            if (sectors[i] == msg.sender) {\n                isSector = true;\n                break;\n            }\n        }\n        if(isSector){\n            revert(\"You are not an insider sector.\");\n        }\n        acceptApp = Applications[indexOfApplication];\n        acceptedContractor = Applications[indexOfApplication].nameOfContractor;\n    }\n}",
  "sourcePath": "/home/fatguy/Desktop/codes/web3/TaxRevenueTransparency/contracts/task.sol",
  "compiler": {
    "name": "solc",
    "version": "0.8.20+commit.a1b79de6.Emscripten.clang"
  },
  "schemaVersion": "3.4.14",
  "updatedAt": "2023-07-16T07:10:53.600Z",
  "devdoc": {
    "kind": "dev",
    "methods": {},
    "version": 1
  },
  "userdoc": {
    "kind": "user",
    "methods": {},
    "version": 1
  }
}